:020000040000FA
:1000000014EF01F0FF00FF005B82D9CF03F0DACFDD
:1000100004F022D0AECF5DF101011A51191118116F
:1000200004E1040E175DD8A002D0000E5C6F3C0EF8
:100030005C19D8B45C07780E5C25D96EDA6A040EB8
:10004000DA225DC1DFFF5C2B000E176F000E186F08
:10005000000E196F000E1A6F9EBADCD79EB89DA8CD
:1000600054D0000E01015825D96EDA6A040EDA2246
:10007000DF50AD6E582B57515819D8B404D03C0EF0
:100080005819D8A403D09D98000E586F000E176F12
:10009000000E186F000E196F000E1A6F36D071B473
:1000A000D0A20BD05950D8A408D074CF5DF1010173
:1000B0005D51D8A404D0FF0002D074CF5DF1D0828E
:1000C0005DC173FF320E01015B19D8B45B07080EE6
:1000D0005D19D8A405D05B51D8B402D05B0715D008
:1000E0000D0E5D19D8B404D00A0E5D19D8A404D041
:1000F000000E5D6F5B29596FC80E5B25D96EDA6AF9
:10010000030EDA225DC1DFFF5B2BA4AA85D0C7D71F
:1001100001016A51D8B469D05850D8A404D0020E55
:100120005918D8B431D0580E2B5D020E2C59D8B0C6
:1001300002D0899801D08988898A2B51016E2C516F
:10014000026E2B4B2C2BBD0E015C020E0258D8A068
:1001500016D082A202D0010E01D0000E5519D8A4EB
:100160000AD0890E2B5D130E2C59D8A008D0000E92
:100170002C6F000E03D0020E2C6FBC0E2B6F000EE6
:100180002E6F000E2D6F31D0580E2D5D020E2E59A0
:10019000D8B003D08988899A02D08988898A2D515C
:1001A000016E2E51026E2D4B2E2BBD0E015C020EE8
:1001B0000258D8A016D082A202D0010E01D0000EA3
:1001C000C019D8A40AD0890E2D5D130E2E59D8A0BF
:1001D00008D0000E2E6F000E03D0020E2E6FBC0E44
:1001E0002D6F000E2C6F000E2B6F010E1B27000EC3
:1001F0001C231D231E23010E1727000E182319236D
:100200001A234C074C29D8A406D049C167FF0A0E0F
:100210004C6F010E4B6F7E907EB07AD704C0DAFF30
:1002200003C0D9FF5B92110034EF50F0A4EF0EF041
:10023000250EB019D8B431D07B51D96EDA6A020ECE
:10024000D926DE50DE10D8B413D07B51D96EDA6ACD
:10025000020ED92602D8A4EF0EF00500FA6EDE5089
:10026000FD6EDE50FE6EF850FF6EFA50B051120077
:100270007B51D96EDA6ADECF7FF0DDCF80F07FC0B0
:10028000D9FF80C0DAFFB0C0DFFF7B51D96EDA6AD8
:10029000DE2A000EDD22A4EF0EF0000EAD6F000E80
:1002A000AC6F000EB26F000EB16F0DD00001B187C0
:1002B00008D00001B18105D00001B28702D0000151
:1002C000B1857C4B7D2B7CC0F6FF7DC0F7FFF86AC3
:1002D0000F0EF76403D00800F55005D0F6CFE1FF0C
:1002E000F7CFE2FFE750200AD8B4E3D7030AD8B427
:1002F000E3D70E0AD8B4DAD71D0AD8B4E0D7000184
:10030000B1B7B1957CC0F6FF7DC0F7FFF86A0F0E5C
:10031000F76403D00800F55005D0F6CFE1FFF7CF22
:10032000E2FFE75061EC60F0D8A04AD0000E000177
:10033000AD6F000EAC6FACC064F0ADC065F0000EE8
:100340000001676F0A0E666F85EC5FF064C0ACF069
:1003500065C0ADF0D00E7F6FFF0E806F7CC0F6FFE2
:100360007DC0F7FFF86A0F0EF76403D00800F55060
:1003700005D0F6CFE1FFF7CFE2FFE7500001816F34
:10038000826B7F518127805182238151AC2782511A
:10039000AD237C4B7D2B7CC0F6FF7DC0F7FFF86A58
:1003A0000F0EF76403D00800F55005D0F6CFE1FF3B
:1003B000F7CFE2FFE75061EC60F0D8A023D0BBD7C5
:1003C0007CC0F6FF7DC0F7FFF86A0F0EF76403D01C
:1003D0000800F55005D0F6CFE1FFF7CFE2FFE75078
:1003E0002A0AD8A40FD000017E51D96EDA6A020E13
:1003F000DF26DF5CD96EDA6ADECFACF0DECFADF09F
:100400007C4B7D2B7CC0F6FF7DC0F7FFF86A0F0E9A
:10041000F76403D00800F55005D0F6CFE1FFF7CF21
:10042000E2FFE7502E0AD8A47AD00001B28D7C4BAF
:100430007D2B7CC0F6FF7DC0F7FFF86A0F0EF764D6
:1004400003D00800F55005D0F6CFE1FFF7CFE2FF6B
:10045000E7502A0AD8A418D000017E51D96EDA6A72
:10046000020EDF26DF5CD96EDA6ADECFAEF0DECFB9
:10047000AFF0AFAF06D0000EAF6F000EAE6FB29D03
:10048000B2897C4B7D2B9AD1000E0001AF6F000E1C
:10049000AE6F30D0AEC064F0AFC065F0000E0001AA
:1004A000676F0A0E666F85EC5FF064C0AEF065C0E2
:1004B000AFF0D00E7F6FFF0E806F7CC0F6FF7DC067
:1004C000F7FFF86A0F0EF76403D00800F55005D067
:1004D000F6CFE1FFF7CFE2FFE7500001816F826BBB
:1004E0007F518127805182238151AE278251AF23D2
:1004F0007C4B7D2B7CC0F6FF7DC0F7FFF86A0F0EAA
:10050000F76403D00800F55005D0F6CFE1FFF7CF30
:10051000E2FFE75061EC60F0D8A050D1BBD7000EED
:100520000001AF6F000EAE6FB28948D1B18946D1DC
:10053000B28581D1B18D7FD1B18BB18F7CD17E510C
:10054000D96EDA6A020EDF26DF5CD96EDA6ADECF98
:100550009AF0DECF9BF09A519B11D8A404D0220EC2
:100560009A6FFC0E9B6F000E9D6F000E9C6F03D068
:1005700000019C4B9D2B9C519A257F6F9D519B2187
:10058000806F7FC0F6FF80C0F7FFF86A0F0EF76438
:1005900003D00800F55005D0F6CFE1FFF7CFE2FF1A
:1005A000E7500009D8A4E4D70001AE51AF11D8B488
:1005B0000ED09C51AE5DAF51800A7F6F9D51800A75
:1005C0007F59D8B004D0AEC09CF0AFC09DF0AC5104
:1005D0009C5DAD519D59D8B005D09C51AC5F9D51EB
:1005E000AD5B04D0000EAD6F000EAC6FB1A72FD085
:1005F0008BD07B51D96EDA6A020ED926DE50DE101E
:10060000D8B412D07B51D96EDA6A020ED92601D83D
:100610001ED00500FA6EDE50FD6EDE50FE6EF85004
:10062000FF6EFA50200E12007B51D96EDA6ADECFCF
:100630007FF0DDCF80F07FC0D9FF80C0DAFF200ED1
:10064000DF6E7B51D96EDA6ADE2A000EDD220001F0
:10065000AC07D8A0AD07AC29CCE1AD29D8B454D0B3
:10066000C8D77B51D96EDA6A020ED926DE50DE1069
:10067000D8B425D07B51D96EDA6A020ED92601D8BA
:100680001AD00500FA6EDE50FD6EDE50FE6EF85098
:10069000FF6EFA509AC0F6FF9BC0F7FFF86A0F0E84
:1006A000F76403D00800F55005D0F6CFE1FFF7CF8F
:1006B000E2FFE750120000019A4B9B2B25D09AC015
:1006C000F6FF9BC0F7FFF86A7B51D96EDA6ADECF7E
:1006D0007FF0DDCF80F07FC0D9FF80C0DAFF0F0E42
:1006E000F76403D00800F55005D0F6CFE1FFF7CF4F
:1006F000E2FFE750DF6E00019A4B9B2B7B51D96ED6
:10070000DA6ADE2A000EDD229C07D8A09D079C290C
:10071000A8E19D29D8A4A5D7B1B730D0A4EF0EF099
:100720007B51D96EDA6A020ED926DE50DE10D8B4BB
:1007300012D07B51D96EDA6A020ED92601D81ED0AA
:100740000500FA6EDE50FD6EDE50FE6EF850FF6E54
:10075000FA50200E12007B51D96EDA6ADECF7FF09C
:10076000DDCF80F07FC0D9FF80C0DAFF200EDF6EC2
:100770007B51D96EDA6ADE2A000EDD220001AC0759
:10078000D8A0AD07AC29CCE1AD29D8B4A4EF0EF0C8
:10079000C7D77E51D96EDA6ADF50DF2ADF2AD96ED9
:1007A000DA6ADF50B06FB00E9A6F9B6B000E9D6FD0
:1007B000010E9C6FF9D6C00EB1133DD000017C51E3
:1007C0007F6F7D51806F7C4B7D2B7FC0F6FF80C09B
:1007D000F7FFF86A0F0EF76403D00800F55005D054
:1007E000F6CFE1FFF7CFE2FFE7500001B06FB05165
:1007F000000AD8B4C1EF0EF0580AD8B49DD63B0A0F
:10080000D8B4C7D7070AD8B416D0020AD8B490D63D
:100810000F0AD8B410D0050AD8B488D6030AD8B4C1
:1008200089D61C0AD8B48BD6060AD8B4C4D70D0A08
:10083000D8B483D6B8D7070EB215D8B4A3EF09F051
:10084000B2A904D0000EAF6F060EAE6F7E51D96E06
:10085000DA6ADFCF7FF0040EDF267F51D96EDA6AC5
:10086000DECFA4F0DECFA5F0DECFA6F0DECFA7F07E
:10087000A7AF14D0A4C005F0A5C006F0A6C007F02D
:10088000A7C008F0F2EC5EF005C0A4F006C0A5F029
:1008900007C0A6F008C0A7F0030EB113000E9F6FAB
:1008A000000E9E6FA4C005F0A5C006F0A6C007F01C
:1008B000A7C008F0000E096E000E0A6E000E0B6E47
:1008C000000E0C6E05EC57F0D8B081D0A635A735D8
:1008D000820F9E6F9F6BFF0E9F239E07D8A09F07DE
:1008E0009EC064F09FC065F0000E676F030E666FD8
:1008F00085EC5FF064C09EF065C09FF09EC06AF01A
:100900009FC06BF0000E6D6F0A0E6C6F4AEC57F0D3
:100910006AC09EF06BC09FF09FAF03D09E07D8A027
:100920009F079E5100088DEC32F072C0A0F073C09A
:10093000A1F074C0A2F075C0A3F0A0C00DF0A1C0DA
:100940000EF0A2C00FF0A3C010F0A4C011F0A5C01B
:1009500012F0A6C013F0A7C014F01BEC36F00DC0C7
:10096000A0F00EC0A1F00FC0A2F010C0A3F0A0C074
:1009700005F0A1C006F0A2C007F0A3C008F0000E69
:10098000096E000E0A6E800E0B6E3F0E0C6EDAECD6
:1009900051F0D8B005D000019E07D8A09F0717D00E
:1009A000A0C005F0A1C006F0A2C007F0A3C008F0E7
:1009B000000E096E000E0A6E200E0B6E410E0C6EBC
:1009C000DAEC51F0D8A003D000019E4B9F2B000120
:1009D000AFBF06D0AF5121E10D0EAE5DD8B01DD036
:1009E000A4C035F0A5C036F0A6C037F0A7C038F0D7
:1009F000AE5163EC41F026C039F027C03AF028C070
:100A00003BF029C03CF0B1EC37F035C0A4F036C063
:100A1000A5F037C0A6F038C0A7F000019FBF06D0F0
:100A20009F5131E10A0E9E5DD8B02DD0A4C005F0D3
:100A3000A5C006F0A6C007F0A7C008F0000E096E1A
:100A4000000E0A6E000E0B6E000E0C6E05EC57F0D9
:100A5000D8B064D0A4C02CF0A5C02DF0A6C02EF054
:100A6000A7C02FF032EC54F02C502D102E102F1068
:100A7000D8A454D000019FBF51D09F5104E1020E71
:100A80009E5DD8A04BD0A0C005F0A1C006F0A2C0CA
:100A900007F0A3C008F05F0E096E700E0A6E890E93
:100AA0000B6E400E0C6EDAEC51F0D8B003D00001A2
:100AB000F70E02D00001F80E9E27FF0E9F239E51D5
:100AC0008DEC32F072C0A0F073C0A1F074C0A2F03F
:100AD00075C0A3F0A4C005F0A5C006F0A6C007F03D
:100AE000A7C008F0A0C009F0A1C00AF0A2C00BF096
:100AF000A3C00CF046EC4FF005C0A8F006C0A9F06A
:100B000007C0AAF008C0ABF0000E0001A46F000EF1
:100B1000A56F000EA66F000EA76F3CD0A4C02CF0EE
:100B2000A5C02DF0A6C02EF0A7C02FF032EC54F0D7
:100B30002CC0A8F02DC0A9F02EC0AAF02FC0ABF099
:100B4000A4C045F0A5C046F0A6C047F0A7C048F035
:100B5000A8C005F0A9C006F0AAC007F0ABC008F015
:100B6000000EC2EC4AF005C049F006C04AF007C0CA
:100B70004BF008C04CF056EC5CF045C0A4F046C009
:100B8000A5F047C0A6F048C0A7F0000E00019F6F77
:100B9000000E9E6F010EB06F0A0EB019D8B418D0B7
:100BA000B051040DD70EF324F66EEE0EF420F76E5E
:100BB0000900F550A85D0900F550A9590900F55044
:100BC000AA590900F550AB59D8A002D0B02BE4D7F0
:100BD000B051AE257F6F000EAF21806F9E517F27F1
:100BE0009F5180237F51AC5F8051AD5BB2B704D081
:100BF000AE51AF11D8B403D0AC07D8A0AD07B1C087
:100C00007FF0030E7F17D8B403D0AC07D8A0AD0790
:100C1000B1A5B5D0B1C07FF0030E7F17D8B442D0D4
:100C20007B51D96EDA6A020ED926DE50DE10D8B4B6
:100C30001CD0B1B104D0000E896F2B0E03D0000E72
:100C4000896F2D0E886F7B51D96EDA6A020ED92614
:100C500001D828D00500FA6EDE50FD6EDE50FE6E23
:100C6000F850FF6EFA5088511200B1B104D0000E56
:100C70008B6F2B0E03D0000E8B6F2D0E8A6F7B5166
:100C8000D96EDA6ADECF7FF0DDCF80F07FC0D9FF8A
:100C900080C0DAFF8AC0DFFF7B51D96EDA6ADE2AB4
:100CA000000EDD220001B1A161D07B51D96EDA6A5C
:100CB000020ED926DE50DE10D8B412D07B51D96E88
:100CC000DA6A020ED92601D851D00500FA6EDE503C
:100CD000FD6EDE50FE6EF850FF6EFA50200E1200D0
:100CE0007B51D96EDA6ADECF7FF0DDCF80F07FC036
:100CF000D9FF80C0DAFF200EDF6E7B51D96EDA6A31
:100D0000DE2A000EDD2232D07B51D96EDA6A020E65
:100D1000D926DE50DE10D8B412D07B51D96EDA6AF3
:100D2000020ED92601D81ED00500FA6EDE50FD6EE7
:100D3000DE50FE6EF850FF6EFA50300E12007B51FE
:100D4000D96EDA6ADECF7FF0DDCF80F07FC0D9FFC9
:100D500080C0DAFF300EDF6E7B51D96EDA6ADE2A90
:100D6000000EDD220001AC07D8A0AD070001ADBF29
:100D700020D1AD51C9E1AC05D8A01BD1C5D7B1A7D1
:100D800033D039D07B51D96EDA6A020ED926DE50C3
:100D9000DE10D8B412D07B51D96EDA6A020ED92691
:100DA00001D81ED00500FA6EDE50FD6EDE50FE6EDC
:100DB000F850FF6EFA50200E12007B51D96EDA6A9D
:100DC000DECF7FF0DDCF80F07FC0D9FF80C0DAFFBB
:100DD000200EDF6E7B51D96EDA6ADE2A000EDD222C
:100DE0000001AC07D8A0AD07ADBF05D0AD51CAE139
:100DF000AC05D8B0C7D7B1C07FF0030E7F17D8B409
:100E00003DD07B51D96EDA6A020ED926DE50DE1053
:100E1000D8B41CD0B1B104D0000E8D6F2B0E03D00E
:100E2000000E8D6F2D0E8C6F7B51D96EDA6A020E1B
:100E3000D92601D8BED00500FA6EDE50FD6EDE5018
:100E4000FE6EF850FF6EFA508C511200B1B104D012
:100E5000000E8F6F2B0E03D0000E8F6F2D0E8E6F36
:100E60007B51D96EDA6ADECF7FF0DDCF80F07FC0B4
:100E7000D9FF80C0DAFF8EC0DFFF95D0B1A199D035
:100E80007B51D96EDA6A020ED926DE50DE10D8B454
:100E900012D07B51D96EDA6A020ED92601D889D0D8
:100EA0000500FA6EDE50FD6EDE50FE6EF850FF6EED
:100EB000FA50200E12007B51D96EDA6ADECF7FF035
:100EC000DDCF80F07FC0D9FF80C0DAFF200E6AD06E
:100ED000A8C042F0A9C043F0AAC044F0ABC045F09E
:100EE000B051040DD70EF324F66EEE0EF420F76E1B
:100EF0000900F5CF46F00900F5CF47F00900F5CF1E
:100F000048F00A00F5CF49F08DEC57F042C0A0F050
:100F100043C0A1F044C0A2F045C0A3F0A0C060F05F
:100F2000A1C061F0A2C062F0A3C063F00A0E00018C
:100F3000646F000E656F000E666F000E676F89ECC0
:100F400059F060C0A0F061C0A1F062C0A2F063C01F
:100F5000A3F07B51D96EDA6A020ED926DE50DE107C
:100F6000D8B413D07B51D96EDA6A020ED92601D8D3
:100F700020D00500FA6EDE50FD6EDE50FE6EF85099
:100F8000FF6EFA50A051300F12007B51D96EDA6A11
:100F9000DECF7FF0DDCF80F07FC0D9FF80C0DAFFE9
:100FA000A051300FDF6E7B51D96EDA6ADE2A000E57
:100FB000DD220001B007B029D8B433D089D77B51E6
:100FC000D96EDA6A020ED926DE50DE10D8B412D0FD
:100FD0007B51D96EDA6A020ED92601D81ED00500DF
:100FE000FA6EDE50FD6EDE50FE6EF850FF6EFA5067
:100FF000300E12007B51D96EDA6ADECF7FF0DDCF82
:1010000080F07FC0D9FF80C0DAFF300EDF6E7B51E9
:10101000D96EDA6ADE2A000EDD2200019E07D8A012
:101020009F079FBF05D09F51CAE19E05D8B0C7D783
:10103000AFBF09D0AF5104E1090EAE5DD8A003D017
:10104000080EB06F02D0AEC0B0F0B051AE5F000E6F
:10105000AF5BB051D8A402D0B2A72ED07B51D96ECD
:10106000DA6A020ED926DE50DE10D8B412D07B51D7
:10107000D96EDA6A020ED92601D81ED00500FA6EA2
:10108000DE50FD6EDE50FE6EF850FF6EFA502E0EF2
:1010900012007B51D96EDA6ADECF7FF0DDCF80F0AF
:1010A0007FC0D9FF80C0DAFF2E0EDF6E7B51D96E74
:1010B000DA6ADE2A000EDD220001B0518DEC32F03A
:1010C00072C083F073C084F074C085F075C086F080
:1010D000A4C011F0A5C012F0A6C013F0A7C014F070
:1010E00083C00DF084C00EF085C00FF086C010F0F4
:1010F0001BEC36F00DC02CF00EC02DF00FC02EF002
:1011000010C02FF032EC54F02CC0A8F02DC0A9F084
:101110002EC0AAF02FC0ABF098D0A8C042F0A9C052
:1011200043F0AAC044F0ABC045F0B051040DD70E57
:10113000F324F66EEE0EF420F76E0900F5CF46F0BC
:101140000900F5CF47F00900F5CF48F00A00F5CFC8
:1011500049F08DEC57F042C0A0F043C0A1F044C06C
:10116000A2F045C0A3F0A0C060F0A1C061F0A2C091
:1011700062F0A3C063F00A0E0001646F000E656F99
:10118000000E666F000E676F89EC59F060C0A0F02A
:1011900061C0A1F062C0A2F063C0A3F07B51D96E20
:1011A000DA6A020ED926DE50DE10D8B413D07B5195
:1011B000D96EDA6A020ED92601D820D00500FA6E5F
:1011C000DE50FD6EDE50FE6EF850FF6EFA50A051FC
:1011D000300F12007B51D96EDA6ADECF7FF0DDCF9F
:1011E00080F07FC0D9FF80C0DAFFA051300FDF6EE2
:1011F0007B51D96EDA6ADE2A000EDD22A8C060F0CB
:10120000A9C061F0AAC062F0ABC063F00001B051A8
:10121000040DD70EF324F66EEE0EF420F76E0900DF
:10122000F5CF64F00900F5CF65F00900F5CF66F061
:101230000A00F5CF67F089EC59F060C0A8F061C0F2
:10124000A9F062C0AAF063C0ABF00001B007B029FA
:10125000D8B433D062D77B51D96EDA6A020ED92660
:10126000DE50DE10D8B412D07B51D96EDA6A020E8D
:10127000D92601D81ED00500FA6EDE50FD6EDE5074
:10128000FE6EF850FF6EFA50300E12007B51D96E90
:10129000DA6ADECF7FF0DDCF80F07FC0D9FF80C07B
:1012A000DAFF300EDF6E7B51D96EDA6ADE2A000E6D
:1012B000DD220001AE07D8A0AF07AE51AF11D8A410
:1012C000CAD7B1B7ADBFA4EF0EF0AD5104E1AC0584
:1012D000D8A0A4EF0EF07B51D96EDA6A020ED9269F
:1012E000DE50DE10D8B412D07B51D96EDA6A020E0D
:1012F000D92601D81ED00500FA6EDE50FD6EDE50F4
:10130000FE6EF850FF6EFA50200E12007B51D96E1F
:10131000DA6ADECF7FF0DDCF80F07FC0D9FF80C0FA
:10132000DAFF200EDF6E7B51D96EDA6ADE2A000EFC
:10133000DD220001AC07D8A0AD07AC51AD11D8B487
:10134000A4EF0EF0C8D7B1C07FF0C00E7F17D8A4AD
:1013500031D0B1A911D07E51D96EDA6A040EDF26E0
:10136000DF5CD96EDA6ADECFA8F0DECFA9F0DECF7F
:10137000AAF0DECFABF011D07E51D96EDA6ADF5021
:10138000DF2ADF2AD96EDA6ADECFA8F0DDCFA9F036
:10139000000EA9BFFF0EAA6FAB6FABAF30D0030E2C
:1013A000B113AB1FAA1FA91FA86D000EA923AA2362
:1013B000AB2325D0B1A911D07E51D96EDA6A040EC3
:1013C000DF26DF5CD96EDA6ADECFA8F0DECFA9F0C7
:1013D000DECFAAF0DECFABF012D07E51D96EDA6A42
:1013E000DF50DF2ADF2AD96EDA6ADECF7FF0DDCF69
:1013F00080F07FC0A8F080C0A9F0AA6BAB6BAE51A3
:10140000AF11D8A463D0A851A911AA11AB11D8A4C7
:101410005DD0AE4BAF2B5AD0010EB06F0A0EB01993
:10142000D8B462D0B051040DD70EF324F66EEE0E90
:10143000F420F76E0900F550A85D0900F550A95990
:101440000900F550AA590900F550AB59D8A04CD065
:10145000B02BE4D7010EB06F080EB019D8B444D049
:10146000B051040D860EF324F66EDD0EF420F76EF7
:101470000900F550A85D0900F550A9590900F5507B
:10148000AA590900F550AB59D8A02ED0B02BE4D7FB
:10149000010EB06F0B0EB019D8B426D0B051040DA8
:1014A0005A0EF324F66EDD0EF420F76E0900F550A7
:1014B000A85D0900F550A9590900F550AA5909007D
:1014C000F550AB59D8A010D0B02BE4D7B151C00B18
:1014D000000AD8B4A1D7400AD8B4DAD7C00AD8B421
:1014E000B9D7400AD8B498D7B0517F6F806BAE514E
:1014F0007F5D8051800A816FAF51800A8159D8B0D9
:1015000003D0AEC0B0F010D0B0517F6F806B7F5170
:10151000AE5DAF51800A816F8051800A8159D8B089
:1015200003D0B0C0AEF0AF6BAC51AD11D8B409D0A0
:10153000B1C07FF0030E7F17D8B403D0AC07D8A09A
:10154000AD07B2AD13D0AC51AE5DAF51800A7F6F25
:10155000AD51800A7F59D8B005D0AE51AC5FAF51C4
:10156000AD5B04D0000EAD6F000EAC6FC40E7F6F8C
:10157000080E806FB1C081F0B2C082F07F51811738
:1015800080518217400E81190CE1080E8219D8A4EF
:1015900008D0AC51AD11D8B428D0AC07D8A0AD0755
:1015A00024D0C00E7F6F080E806FB1C081F0B2C032
:1015B00082F07F51811780518217800E811915E1C9
:1015C000080E8219D8A411D0ADBF0BD0AD5104E1E3
:1015D000030EAC5DD8A005D0FE0EAC27FF0EAD23E8
:1015E00004D0000EAD6F000EAC6FB0517F6F806BFA
:1015F000AC517F5D8051800A816FAD51800A815965
:10160000D8B005D0B051AC5F000EAD5B04D0000E79
:10161000AD6F000EAC6FB1A515D1B1C07FF0030E58
:101620007F17D8B428D07B51D96EDA6A020ED9263A
:10163000DE50DE10D8B412D07B51D96EDA6A020EB9
:10164000D92601D8C7D00500FA6EDE50FD6EDE50F7
:10165000FE6EF850FF6EFA502D0E12007B51D96EBF
:10166000DA6ADECF7FF0DDCF80F07FC0D9FF80C0A7
:10167000DAFF2D0E29D0B1A129D07B51D96EDA6ABB
:10168000020ED926DE50DE10D8B412D07B51D96EAE
:10169000DA6A020ED92601D89DD00500FA6EDE5016
:1016A000FD6EDE50FE6EF850FF6EFA50200E1200F6
:1016B0007B51D96EDA6ADECF7FF0DDCF80F07FC05C
:1016C000D9FF80C0DAFF200EDF6E7ED0C00E7F6FA4
:1016D000080E806FB1C081F0B2C082F07F518117D7
:1016E00080518217800E811975E1080E8219D8A4E5
:1016F00071D07B51D96EDA6A020ED926DE50DE1027
:10170000D8B412D07B51D96EDA6A020ED92601D82C
:101710001ED00500FA6EDE50FD6EDE50FE6EF850F3
:10172000FF6EFA50300E12007B51D96EDA6ADECFAE
:101730007FF0DDCF80F07FC0D9FF80C0DAFF300EB0
:10174000DF6E7B51D96EDA6ADE2A000EDD220001DF
:101750007B51D96EDA6A020ED926DE50DE10D8B47B
:101760001CD0B1BB04D0000E916F780E03D0000ED8
:10177000916F580E906F7B51D96EDA6A020ED9269E
:1017800001D828D00500FA6EDE50FD6EDE50FE6EE8
:10179000F850FF6EFA5090511200B1BB04D0000E09
:1017A000936F780E03D0000E936F580E926F7B519B
:1017B000D96EDA6ADECF7FF0DDCF80F07FC0D9FF4F
:1017C00080C0DAFF92C0DFFF7B51D96EDA6ADE2A71
:1017D000000EDD220001AC51AD11D8B46ED27B51A8
:1017E000D96EDA6A020ED926DE50DE10D8B412D0D5
:1017F0007B51D96EDA6A020ED92601D81ED00500B7
:10180000FA6EDE50FD6EDE50FE6EF850FF6EFA503E
:10181000300E12007B51D96EDA6ADECF7FF0DDCF59
:1018200080F07FC0D9FF80C0DAFF300EDF6E7B51C1
:10183000D96EDA6ADE2A000EDD220001AC07D8A0DC
:10184000AD07C9D7AC51AD11D8A4B1B736D07B51D3
:10185000D96EDA6A020ED926DE50DE10D8B412D064
:101860007B51D96EDA6A020ED92601D81ED0050046
:10187000FA6EDE50FD6EDE50FE6EF850FF6EFA50CE
:10188000200E12007B51D96EDA6ADECF7FF0DDCFF9
:1018900080F07FC0D9FF80C0DAFF200EDF6E7B5161
:1018A000D96EDA6ADE2A000EDD220001AC07D8A06C
:1018B000AD07AC51AD11D8A4CAD7B1C07FF0030EAB
:1018C0007F17D8B428D07B51D96EDA6A020ED92698
:1018D000DE50DE10D8B412D07B51D96EDA6A020E17
:1018E000D92601D848D00500FA6EDE50FD6EDE50D4
:1018F000FE6EF850FF6EFA502D0E12007B51D96E1D
:10190000DA6ADECF7FF0DDCF80F07FC0D9FF80C004
:10191000DAFF2D0E29D0B1A12ED07B51D96EDA6A13
:10192000020ED926DE50DE10D8B412D07B51D96E0B
:10193000DA6A020ED92601D81ED00500FA6EDE50F2
:10194000FD6EDE50FE6EF850FF6EFA50200E120053
:101950007B51D96EDA6ADECF7FF0DDCF80F07FC0B9
:10196000D9FF80C0DAFF200EDF6E7B51D96EDA6AB4
:10197000DE2A000EDD22C00E00017F6F080E806F90
:10198000B1C081F0B2C082F07F51811780518217BF
:10199000400E81192DE1080E8219D8A429D07B515F
:1019A000D96EDA6A020ED926DE50DE10D8B412D013
:1019B0007B51D96EDA6A020ED92601D87ED1050094
:1019C000FA6EDE50FD6EDE50FE6EF850FF6EFA507D
:1019D000300E12007B51D96EDA6ADECF7FF0DDCF98
:1019E00080F07FC0D9FF80C0DAFF300EDF6E5FD19C
:1019F000C00E7F6F080E806FB1C081F0B2C082F060
:101A00007F51811780518217800E811903E1080EE2
:101A10008219D8A452D17B51D96EDA6A020ED92626
:101A2000DE50DE10D8B412D07B51D96EDA6A020EC5
:101A3000D92601D81ED00500FA6EDE50FD6EDE50AC
:101A4000FE6EF850FF6EFA50300E12007B51D96EC8
:101A5000DA6ADECF7FF0DDCF80F07FC0D9FF80C0B3
:101A6000DAFF300EDF6E7B51D96EDA6ADE2A000EA5
:101A7000DD2200017B51D96EDA6A020ED926DE50D2
:101A8000DE10D8B41CD0B1BB04D0000E956F780E18
:101A900003D0000E956F580E946F7B51D96EDA6AA1
:101AA000020ED92601D809D10500FA6EDE50FD6E6E
:101AB000DE50FE6EF850FF6EFA5094511200B1BB2A
:101AC00004D0000E976F780E03D0000E976F580E5B
:101AD000966F7B51D96EDA6ADECF7FF0DDCF80F072
:101AE0007FC0D9FF80C0DAFF96C0DFFFE0D0AEC074
:101AF0007FF0AFC080F0D8907F378037D8907F37A5
:101B00008037D70E7F25F66EEE0E8021F76E090026
:101B1000F5CF46F00900F5CF47F00900F5CF48F0C2
:101B20000A00F5CF49F0A8C042F0A9C043F0AAC00E
:101B300044F0ABC045F08DEC57F042C060F043C0BC
:101B400061F044C062F045C063F00A0E0001646FAA
:101B5000000E656F000E666F000E676F89EC59F01E
:101B60006051300F6CD0A8C042F0A9C043F0AAC0A9
:101B700044F0ABC045F0AEC07FF0AFC080F0D8906D
:101B80007F378037D8907F378037860E7F25F66E77
:101B9000DD0E8021F76E0900F5CF46F00900F5CF84
:101BA00047F00900F5CF48F00A00F5CF49F08DEC79
:101BB00057F042500F0B0001876FB1BB04D0CD0E20
:101BC000986FF90E03D0BC0E986FF90E996F87517C
:101BD00098257F6F000E9921806F7FC0F6FF80C02F
:101BE000F7FF0800F5CFB0F03AD0A8C042F0A9C086
:101BF00043F0AAC044F0ABC045F0AEC07FF0AFC028
:101C000080F0D8907F378037D8907F3780375A0E52
:101C10007F25F66EDD0E8021F76E0900F5CF46F0C8
:101C20000900F5CF47F00900F5CF48F00A00F5CFDD
:101C300049F08DEC57F04250070B300F0001B06FA8
:101C40000ED0B151C00B000AD8B451D7400AD8B455
:101C5000CCD7C00AD8B487D7400AD8B448D77B516C
:101C6000D96EDA6A020ED926DE50DE10D8B412D050
:101C70007B51D96EDA6A020ED92601D81ED0050032
:101C8000FA6EDE50FD6EDE50FE6EF850FF6EFA50BA
:101C9000B05112007B51D96EDA6ADECF7FF0DDCF12
:101CA00080F07FC0D9FF80C0DAFFB0C0DFFF7B517A
:101CB000D96EDA6ADE2A000EDD220001AE07D8A056
:101CC000AF07AE29BEE1AF29D8A4BBD7B1B7ADBF2E
:101CD0003BD0AD5103E1AC05D8A036D07B51D96ED5
:101CE000DA6A020ED926DE50DE10D8B412D07B514B
:101CF000D96EDA6A020ED92601D81ED00500FA6E16
:101D0000DE50FD6EDE50FE6EF850FF6EFA50200E73
:101D100012007B51D96EDA6ADECF7FF0DDCF80F022
:101D20007FC0D9FF80C0DAFF200EDF6E7B51D96EF5
:101D3000DA6ADE2A000EDD220001AC07D8A0AD076A
:101D4000AC51AD11D8A4CAD700017C517F6F7D5131
:101D5000806F7C4B7D2B7FC0F6FF80C0F7FFF86A59
:101D60000F0EF76403D00800F55005D0F6CFE1FF61
:101D7000F7CFE2FFE7500001B06FB051D8A418EFE1
:101D800001F0000E7C6F000E7B6F1200000E04014C
:101D9000DD6F000EDE6F050EDC6F000EC96F000EEA
:101DA000DB6F000EC86F010EB86F000EB96F010E29
:101DB000BB6F24EECEF00B0EDE6AE806FDE224EEE9
:101DC000BCF00B0EDE6AE806FDE2080EE06F000EC6
:101DD000CA6F000ECB6F000ECC6F000ECD6F000EE1
:101DE000B46F000EB56F000EB66F000EB76F020E27
:101DF000DA6F72EC51F0B8EC3AF0CFC164F0D0C1B8
:101E000065F0000E0001676F0A0E666F85EC5FF0EB
:101E100064C02FF165C030F143EC60F08986CEECF0
:101E200057F07AEC5EF0D08292EC46F00401E16F5C
:101E3000020EE119D8A402D0800E586E01014D5156
:101E4000D8A4FFEC4BF001015951D8A40BEC17F0CA
:101E50004151D8B412D01A511911181104E1070ECA
:101E6000175DD8A00AD08A8A000E066E010E056E94
:101E700042EC5DF09D88000E416F5851D8B4ACA281
:101E800001D08A9ADEEC55F0A30E946E00F000F0BB
:101E90008250210B0401E16FE139E8461F0B01017B
:101EA000BF6F0401E151E125020B0101BF11BF6FBA
:101EB0008150010BBF11BF6F820E946E070EBF19C8
:101EC000D8A404D0BE51BF19D8B403D0BF5142EC3E
:101ED00029F0010E516525D0250E516122D0880EC2
:101EE00002015C250101B06F130E02015D210101A9
:101EF000B16F000E02015E210101B26F000E0201FE
:101F00005F210101B36F1B51B05D1C51B1591D51CF
:101F1000B2591E51B359D8B004D05051D8B4BBEC0B
:101F20004DF001015151D8A429D0060EBF19D8A4F3
:101F300025D05A50D8B422D00401BA51D8A41ED00A
:101F4000020E010168611AD0030E6719D8A416D0D9
:101F50005A50FF0A030B99EC5FF0DE0E5816000E84
:101F6000576E000E0001AD6F000EAC6F22EC5DF0FD
:101F7000000E536F050E0401BA6F0BD00401BA5165
:101F8000D8B407D0070E0101BF19D8A402D00401AC
:101F9000BA0781A402D0010E01D0000E0401BB19C2
:101FA000D8A403D0DD51D8B4DFD0B92BB9050101D5
:101FB000B06F060EB06104D00401DD51D8B4D7D0A3
:101FC000000E81B4010E0401BB6FBB51D8B476D0B2
:101FD000C0D04551D8B406D0000E456F000E10ECAD
:101FE0005EF002D0010E456F560E0001C76FFA0E6B
:101FF000C86F45C1C9F0CA6B09EC5FF06ED0010E25
:10200000456F6BD00401DD51D8A40AD0010EDD6FFD
:102010001BC1B4F41CC1B5F41DC1B6F41EC1B7F4A4
:10202000DD51D8B45AD0DC0EB4250101B06F050ED5
:102030000401B5210101B16F000E0401B6210101B7
:10204000B26F000E0401B7210101B36F1B51B05DE7
:102050001C51B1591D51B2591E51B359D8B03DD080
:10206000020E5918D8A439D0000E10EC5EF0010110
:102070004D51D8A402D00F0E576E020E0401DD6F31
:102080002CD0020E5A18D8A428D0010E99EC5FF07B
:10209000000E0001AD6F000EAC6F22EC5DF01DD0A4
:1020A000020E5918D8A419D0000E10EC5EF00101F0
:1020B0004D51D8A412D00F0E576E0FD001016751A9
:1020C000010AD8B486D7030AD8B499D7010AD8B47C
:1020D00099D7070AD8B4D5D7E3D701016605D8B494
:1020E00058A802D081A258983C0E546F89863CD0E3
:1020F000000E456F000E10EC5EF036D0020E0401AB
:10210000DD19D8B41BD05A04D8A404D0020E99EC1F
:102110005FF007D0020E5A18D8A403D0010E99EC34
:102120005FF0DE0E5816000E576E000E0001AD6F08
:10213000000EAC6F22EC5DF0000E536F000E040138
:10214000DD6F12D05A04D8A40FD0020E99EC5FF0C4
:102150000BD001016751020AD8B4CAD7010AD8B41A
:10216000CDD7070AD8B4EED7000E0401B96F01012C
:102170006605D8B481A20AD081A208D0000E10EC66
:102180005EF0100E586E000E0101536F5950D8B416
:1021900004D0040E5918D8A4A9D0000EBD6E8284B4
:1021A0008A98000E0201406FB2EC58F00401DF6F14
:1021B000DF05D8A414D0040E5918D8A403D0000EFB
:1021C00010EC5EF0589A5890000E576E01015E694F
:1021D0000401DA51D8A48AD0010EDA6F87D0020E3A
:1021E000DF19D8B404D0020EDF19D8A47DD058501E
:1021F000D8A47AD05750D8A477D001014551D8B48B
:1022000073D0040E5918D8B46FD05E05D8A466D028
:102210000401DE2BDE050101B06F190EB06566D03A
:10222000000E0401C96F2AEC56F0730E0001C76F4F
:10223000F80EC86F3BC1C9F03CC1CAF0CDC1CBF0AC
:10224000CEC1CCF009EC5FF00101CD513B5DCE5128
:102250003C59D8B00CD03BC164F03CC165F0000ED5
:102260000001676F0A0E666F85EC5FF00BD0CDC181
:1022700064F0CEC165F0000E0001676F0A0E666F54
:1022800085EC5FF064C039F165C03AF1010E0101DF
:10229000686504D0040E10EC5EF028D03BC164F0F9
:1022A0003CC165F0000E0001676F0A0E666F85EC99
:1022B0005FF064C010F265C011F239C189F23AC111
:1022C0008AF2010E0201406F010E10EC5EF01E0E4C
:1022D0000401DB6F3C0E0101546F08D0010E5E6FEC
:1022E000000E0401DE6F02D001015E69050E59186F
:1022F000D8A409D0010E10EC5EF01E0E0401DB6FB5
:102300003C0E0101546F5904D8B404D0060E59187C
:10231000D8A4B4D0070EBC6499D0180EBC6096D077
:10232000B2EC58F00401DF6FDF05D8A415D001012D
:102330005E51D8A40FD00401DE2BDE050101B06F81
:10234000190EB06583D0000E10EC5EF03C0E01015A
:10235000546F7CD0000E67D0030EDF19D8A468D06C
:10236000020E01015E19D8A45CD00401C905D8A4ED
:1023700058D0DE2BDE050101B06F190EB06566D0B6
:102380005850D8A463D05750D8A460D06251D8B464
:102390000ED00401DA51D8B40AD0CAC454F2CBC466
:1023A00055F2CCC456F2CDC457F2000EDA6F010ECE
:1023B0000101686508D0060E5918D8B447D0060E3A
:1023C00010EC5EF043D039C110F23AC111F2B7EC13
:1023D00044F00009D8B423D0020E0201406F000E71
:1023E0008A6F000E896F010E5BEC22F08A8804016F
:1023F000DB69000EC96F020E10EC5EF0000E0101E9
:10240000536F000E1B6F000E1C6F000E1D6F000E31
:102410001E6F5151D8A41AD07CEC1DF017D05880F3
:1024200015D0020E01015E6F000E0401DE6F0ED0AA
:10243000DB51D8A409D0080E10EC5EF0030E0401A5
:10244000C86F000EBD6E829401015E69E60EBC6429
:1024500015D0F10EBC64FDD7F10EBC640FD0F90E9F
:10246000BC600CD0B2EC58F00401DF6F040EDF1931
:10247000D8A402D0010E01D0000EC96F080E591861
:10248000D8A40AD00401C851D8A406D0010E10EC7B
:102490005EF082840401DB69070E5918D8A419D0B4
:1024A0008A88000E0401C96F020E10EC5EF0040170
:1024B000DB6901015E69000E536F000E1B6F000E99
:1024C0001C6F000E1D6F000E1E6F5151D8B47CECB6
:1024D0001DF0020E5918D8A453D0070EBC6450D07A
:1024E000180EBC604DD0B2EC58F00401DF6FDF0570
:1024F000D8B403D0DF51D8A41AD001015E51D8A4BA
:1025000014D00401DE2BDE050101B06F190EB06599
:1025100037D08A98000E10EC5EF0CEEC57F0020E29
:10252000010168612DD0000E20D0000E22D0020ED5
:10253000DF19D8A423D001015E05D8A419D0040165
:10254000DE2BDE050101B06F190EB06519D08A9837
:10255000010E10EC5EF0CEEC57F0000E0401C96FD6
:10256000020E010168610CD0010E0201406F08D01B
:10257000010E5E6F000E0401DE6F02D001015E6984
:10258000ABA202D0AB98AB8871A202D071987188CF
:10259000D6CFE1F43C0ED764CFD001015E29D8B488
:1025A00004D0020E5918D8B4C7D0000ED76E000E52
:1025B000D66E33EC5CF02CEC4DF05904D8A404D06A
:1025C0000401DB29D8A4DB07080E5918D8A404D0CD
:1025D0000401C851D8A4C807010127512811D8B453
:1025E0000DD02707D8A0280727512811D8A406D036
:1025F000000E10EC5EF0588ADAEC5DF05750D8A46B
:10260000570601015251800A490FD8A058A401D0A1
:10261000589458C0B0F1210EB017D8B41AD0020E99
:10262000686117D0B7EC44F00009D8B412D05890C4
:10263000589A100EC76FF70EC86F09EC5FF0000EC6
:10264000A96F010EA86F58C0AAF0AB6B090E93ECEE
:102650005EF00401DC51D8B458B20DD05882000E9F
:1026600010EC5EF03A0EC76FF80EC86F09EC5FF021
:10267000DAEC5DF003D0DC51D8A4DC070101525143
:10268000800A3F0FD8B058B413D05884000E10EC15
:102690005EF08F0EC76FF80EC86F01015251000136
:1026A000C96FCA6BC9BFCA0709EC5FF0DAEC5DF00D
:1026B00058C0B0F1210E0101B017D8B41ED0020EDF
:1026C0005A18D8A40BD05750D8A412D0570E0001D6
:1026D000C76FF80EC86F09EC5FF00AD05750D8A446
:1026E00007D04F0E0001C76FF70EC86F09EC5FF0FF
:1026F000000E10EC5EF03C0E576E7CEC1DF0020EEE
:102700000101686119D00401B807B829D8A414D010
:102710005A50D8B404D0010E0101486F0AD0000EFF
:102720000101366F000E356F060E486F0A0E040168
:10273000DC6F010E0401B86F01014851D8B4FED01E
:102740001A511911181105E1640E175DD8B0BAD0ED
:10275000F5D0B8D06451D8B406D0D2C1ADF0645130
:10276000D5EC48F0EBD0482BD3C1ADF0D451D5EC2B
:1027700048F0E4D0010E0201D56F62C1D7F2D1C199
:10278000D8F20401E02B070EE06502D0000EE06FE6
:10279000E051040DD50EF324D96E020EF420DA6E4A
:1027A000DF50D8B4EED7E051040DD60EF324D96E25
:1027B000020EF420DA6EDF50D8B404D0E051E3EC1E
:1027C0005FF0BCD00101482B0401E051040DD70E8D
:1027D000F324D96E020EF420DA6EDF50D8B418D08C
:1027E000E051040DD80EF324D96E020EF420DA6EF7
:1027F000DF500001AD6F0401E051040DD70EF3244A
:10280000D96E020EF420DA6EDF508FEC54F096D0C1
:102810000101482B0401E051040DD70EF324D96EB9
:10282000020EF420DA6EDF50D8B418D0E051040D57
:10283000D80EF324D96E020EF420DA6EDF500001B8
:10284000AD6F0401E051040DD70EF324D96E020ED2
:10285000F420DA6EDF5002EC5DF070D00101482BFD
:102860006805D8A405D04851FA0F46EC5EF066D052
:102870000C0E486F6805D8A405D04851F30FDAEC68
:102880003EF05CD05A50D8B405D058B217D07DEC89
:102890002EF014D0000E5BEC22F06805D8B470EC7A
:1028A00060F05904D8B404D0020E5918D8A406D048
:1028B00089C2E6F08AC2E7F0ACEC45F0000E0101F7
:1028C000486F3CD0482B4805010AD8B443D7030AC7
:1028D000D8B44AD7010AD8B44DD7070AD8B474D7A8
:1028E000010AD8B497D7030AD8B4BAD7010AD8B422
:1028F000B7D70F0AD8B4B4D7010AD8B4B1D7030AEE
:10290000D8B4AED7010AD8B4ABD7070AD8B4A8D781
:10291000010AD8B4AFD7030AD8B4ACD7010AD8B4E7
:10292000A9D71F0AD8B4A6D7010AD8B4A3D7030AD7
:10293000D8B4A0D7010AD8B49DD7A4D701015C515F
:10294000D8B45DD21A511911181104E1040E175DA3
:10295000D8A055D23C0E056E040E066E780E076E9A
:10296000040E086E5CC109F00A6A7BEC5AF05CC187
:102970005AF1000E01015C6F3C0E0001E66F040E7F
:10298000E76F5AC1E8F073EC2CF0030E01010B194C
:10299000D8B477D17ED16451D8B421D0D2510019A6
:1029A000D8A41DD06451190D100EF324D96E030E56
:1029B000F420DA6EDE50021912E1DE500319D8A4B9
:1029C0000ED008C1ACF009C1ADF064C1AEF0BC0ED0
:1029D0000001AF6F040EB06F05EC26F010D2D3519A
:1029E0000019D8A4B5D0D451190D100EF324D96E06
:1029F000030EF420DA6EDE50021903E1DE500319F3
:102A0000D8A4A6D008C1ACF009C1ADF0D4C1AEF0D5
:102A1000CE0E0001AF6F040EB06F05EC26F004017E
:102A2000E16FE151D8B407D0020E0101686103D013
:102A30000A0E0401DC6F000E0101326F000E316FCF
:102A4000000E0401E16F020EE16501D0D8D1010151
:102A50006451D8B43FD00401E151040DBC0EF324FD
:102A6000D96E040EF420DA6EDECFB0F1DECFB1F114
:102A7000DECFB2F1DECFB3F1E151040DCE0EF3247F
:102A8000D96E040EF420DA6EDECFB4F1DECFB5F1EC
:102A9000DECFB6F1DECFB7F10101B051B45DB86F52
:102AA000B151B559B96FB251B659BA6FB351B7599F
:102AB000BB6F0401E151040DCE0EF324D96E040E58
:102AC000F420DA6EB8C1DEFFB9C1DEFFBAC1DEFFA5
:102AD000BBC1DEFF0401E151040DCE0EF324D96E1B
:102AE000040EF420DA6EDECF42F0DECF43F0DECF0C
:102AF00044F0DECF45F0640E466E000E476E000EC9
:102B0000486E000E496EA9EC52F00401E151020D2D
:102B1000110EF324D96E010EF420DA6E42C0DEFFEE
:102B200043C0DDFFE151020D110EF324D96E010EF9
:102B3000F420DA6EDECFB0F1DDCFB1F10101315119
:102B4000B025316F3251B121326F0401E12B7BD7B7
:102B50006251D8B446D0D1510019D8A442D06251A4
:102B6000190D160EF324D96E030EF420DA6EDE5022
:102B7000021937E1DE500319D8A433D008C16AF036
:102B800009C16BF062C16CF073EC53F06AC0CAF417
:102B90006BC0CBF46CC0CCF46DC0CDF4020E04015C
:102BA000DA19D8A408D0CAC454F2CBC455F2CCC4A4
:102BB00056F2CDC457F2020154510401CA5D02011C
:102BC000586F55510401CB590201596F56510401F8
:102BD000CC5902015A6F57510401CD5902015B6F64
:102BE0000ED16251D8B424D0D1510019D8A420D02C
:102BF0006251190D130EF324D96E030EF420DA6E10
:102C0000DE50021915E1DE500319D8A411D008C115
:102C10006AF009C16BF062C16CF042EC4EF06AC020
:102C200050F26BC051F26CC052F26DC053F2E7D05B
:102C3000010E006510D0090E00610DD00251031184
:102C4000D8A409D008C105F009C106F00005076E37
:102C5000D3EC53F0D4D0010E0065D1D0090E006141
:102C6000CED0080E021902E10305D8A4C8D008C1CD
:102C7000ACF009C1ADF000050001AE6FE9EC58F011
:102C8000BED00151030AD8B486D6070AD8B483D679
:102C9000B6D0020E0B19D8A4A7D00A0E0019D8A4DA
:102CA00016D0060E0119D8A412D0A80E02190311CD
:102CB000D8A40DD04F0E06190AE1490E0719D8A461
:102CC00006D04D51D8A403D04D6914EF01F0090E80
:102CD0000019D8B47BD06851D8A403D00005D8B46B
:102CE00075D06851D8B48BD068510019D8B46ED063
:102CF00086D0090E0019D8B482D00AEC58F07FD0E3
:102D000074EC56F07CD0200E02190311D8A45BD0CD
:102D1000010E686558D06851B06FB16BD890B0376C
:102D2000B13721EE08F0DECFB2F1DDCFB3F1B05113
:102D3000B227B151B323FE0EB225D96EFF0EB321D7
:102D4000DA6EDF50B46FB451B66FB56B6851B76FC0
:102D5000B86BD890B737B83721EE08F0DECFB9F1AD
:102D6000DDCFBAF1B751B927B851BA23FF0EB92553
:102D7000D96EFF0EBA21DA6EDF50BB6FBB51B511B1
:102D80000201896F0101B65102018A6F89518A11CE
:102D9000D8A408D0020E5918D8A404D0000E10EC04
:102DA0005EF00DD05904D8B404D0020E5918D8A43E
:102DB00006D089C2E6F08AC2E7F0ACEC45F00A0E14
:102DC0000401DC6F1CD09BEC4CF019D00151030ABC
:102DD000D8B48FD7070AD8B48CD7020AD8B490D702
:102DE000160AD8B490D70BD0040E0B19D8B407D05C
:102DF000110E0001C76FFA0EC86F09EC5FF058A200
:102E00001EEF0FF00A0E0401DC19D8A41EEF0FF01C
:102E100058921EEF0FF037EC39F00001F76F8E0E6D
:102E2000C76FF20EC86F09EC5FF001015651D8A4CC
:102E300052D0000E0001FD6F26D0C80E056E030EA5
:102E4000066E640EFD25D96EDA6A020EDA22DF50B4
:102E5000ED6FED514B0DA60EF324076EDD0EF42041
:102E6000086E1DEC5AF005500610D8A40AD0640E66
:102E70000001FD25D96EDA6A020EDA22DF50010167
:102E8000566F0001FD2BFF0EED6FFF0EEE6FF75139
:102E9000EF6FF06BED51EF27EE51F023FD51F16F25
:102EA000F26BEF51F15DF251800AF36FF051800A3D
:102EB000F359D8A0C2D7C80E056E030E066E5A0E7F
:102EC000076EFC0E086E1DEC5AF005500610D8A4D3
:102ED00052D2320E05D00301C851D8A41BD2000E25
:102EE0000101566F48D2000E0001FC6FC80EFC2590
:102EF000D96EDA6A030EDA22DF50FD6F2E0EFD194D
:102F0000D8A416D0C90EFC25D96EDA6A030EDA22CF
:102F1000C80EFC25E16EE26A030EE222DFCFE7FF76
:102F2000C90EFC25D96EDA6A030EDA22000EDF6EB6
:102F3000FC2BFD51D8A4DAD7C80E6A6F030E6B6F55
:102F400009EC51F06AC0F8F06BC0F9F0F95104E1F6
:102F50003C0EF85DD8A006D0210EF85D030EF9599D
:102F6000D8A007D0440EC76FF60EC86F09EC5FF00B
:102F7000FBD1F8C036F0F9C037F0386A396A0A0E6A
:102F80003A6E000E3B6E000E3C6E000E3D6EA8ECDD
:102F90005AF00A0ED8903636373638363936E82E9B
:102FA000F9D7000E3624426E140E3720436E000E01
:102FB0003820446E000E3920456E60C246F061C272
:102FC00047F0486A496A8DEC57F042C0C1F143C0EE
:102FD000C2F144C0C3F145C0C4F178EC34F0C4D1AF
:102FE000C80E056E030E066E0F0E076EFB0E086E02
:102FF0001DEC5AF005500610D8A402D0020E0FD0D6
:10300000C80E056E030E066ECB0E076EFC0E086E24
:103010001DEC5AF005500610D8A403D0010E5A6ECC
:10302000DCD7C80E056E030E066E6F0E076EFC0E23
:10303000086E1DEC5AF005500610D8A495D1000E6C
:103040005A6E78EC34F0000E586E8ED1C80E056EB4
:10305000030E066EC10E076EFB0E086E1DEC5AF0D5
:1030600005500610D8A402D0010E1FD0C80E056E60
:10307000030E066EC50E076EFC0E086E1DEC5AF0B0
:1030800005500610D8A402D0020E0FD0C80E056E4F
:10309000030E066E0A0E076EFC0E086E1DEC5AF04B
:1030A00005500610D8A460D1000E01016A6F95D7B3
:1030B000C80E056E030E066EBF0E076EFC0E086E80
:1030C0001DEC5AF005500610D8A402D0010E0FD006
:1030D000C80E056E030E066E760E076EFC0E086EA9
:1030E0001DEC5AF005500610D8A43ED1000E010187
:1030F000696F73D7000E0001FD6FC80E056E030ED9
:10310000066EFD51090D220EF324076EEE0EF4201B
:10311000086E1DEC5AF005500610D8A404D0FDC06E
:1031200068F178EC34F00001FD2B080EFD65E5D761
:103130001BD1000E0001FD6FC80E056E030E066E5A
:10314000FD510A0DA50EF324076EEE0EF420086E55
:103150001DEC5AF005500610D8A404D0FDC067F14C
:1031600078EC34F00001FD2B040EFD65E5D7FCD0B2
:10317000000E0001FD6FC80E056E030E066EFD51B8
:103180000A0DFF0EF324076EEE0EF420086E1DEC00
:103190005AF005500610D8A404D0FDC063F178ECB5
:1031A00034F00001FD2B010EFD65E5D7DDD0C80E22
:1031B000056E030E066E0A0E076EFC0E086E1DEC01
:1031C0005AF005500610D8A402D0000E0FD0C80E39
:1031D000056E030E066E680E076EFC0E086E1DEC83
:1031E0005AF005500610D8A4BFD0010E0101666F39
:1031F000F4D6000E0001FD6FC80E056E030E066EBC
:10320000FD51190D000EF324076E030EF420086E15
:103210001DEC5AF005500610D8A413D00001FD058E
:10322000D8A405D00A0E01015619D8B40AD0FDC0A1
:10323000E7F00001E86B0101565120EC3CF078EC1E
:1032400034F00001FD2B070EFD65D6D78DD0C80EDA
:10325000056E030E066EEB0E076EFC0E086E1DEC7F
:103260005AF005500610D8A402D0000E0FD0C80E98
:10327000056E030E066EE60E076EFC0E086E1DEC64
:103280005AF005500610D8A46FD0010E0101656FE9
:10329000A4D6000E0001FD6FC80E056E030E066E6B
:1032A000FD510A0D730EF324076EEE0EF420086E26
:1032B0001DEC5AF005500610D8A404D0FDC061F1F1
:1032C00078EC34F00001FD2B040EFD65E5D74CD001
:1032D000C80E00016A6F030E6B6F09EC51F06AC0F3
:1032E000FAF06BC0FBF0FAC0E7F0FBC0E8F00101B8
:1032F000565120EC3CF00001F46F78EC34F0000102
:10330000F451D8A431D0E30EC76FF70EC86F09ECA3
:103310005FF02AD001015651020AD8B4C9D6010A79
:10332000D8B494D6050AD8B4E5D6010AD8B401D7E2
:103330000F0AD8B43CD7010AD8B4ABD7030AD8B423
:1033400058D7060AD8B44CD6020AD8B411D7010A05
:10335000D8B4C9D51B0AD8B44CD7020AD8B477D789
:10336000010AD8B446D7B4D7000E0101566F37EC26
:1033700039F00001F76F0E0E0101566563D3250E7B
:10338000566160D3EF0E0001C76FF90EC86F0101DF
:1033900056514B0D110EF326000EF422A60EF32407
:1033A0000001C96FDD0EF420CA6F0101565186EC91
:1033B00030F0C0C0CBF0C1C0CCF009EC5FF042D31C
:1033C000FD0E0001C76FF10EC86F09EC5FF07D0EB6
:1033D000C76FFB0EC86F09EC5FF0990EC76FF60E52
:1033E000C86F09EC5FF0C30EC76FF60EC86F01011E
:1033F00052510001C96FCA6BC9BFCA0729C1CBF0BE
:103400002AC1CCF009EC5FF0480EC76FF20EC86F0E
:1034100009EC5FF0000EFD6F95D0000EC76FFA0E3D
:10342000C86F640EFD25D96EDA6A020EDA22DF500B
:10343000ED6FED514B0DA60EF324C96FDD0EF42098
:10344000CA6F640EFD25D96EDA6A020EDA22DF50E9
:10345000EE6FEE514B0D110EF326000EF422A60E68
:10346000F324CB6FDD0EF420CC6F09EC5FF0640E1B
:10347000FD25D96EDA6A020EDA220F0EDE18D8A404
:103480004BD0000EFC6F020EFC6501D054D0FC51F5
:10349000020D110EF324D96E010EF420DA6EDECF88
:1034A0006AF0DDCF6BF0000E6D6F0A0E6C6F4AECA8
:1034B00057F06AC0F5F06BC0F6F01F0EC76FFA0E3A
:1034C000C86F010EFC25C96FCA6B000ECA23F5C078
:1034D000CBF0F6C0CCF0FC51020D110EF324D96EE6
:1034E000010EF420DA6EDECF50F0DDCF51F049EC62
:1034F0005FF050C060F051C061F0000E0001636FDA
:103500000A0E626FE1EC5CF060C0CDF061C0CEF0FD
:1035100009EC5FF0FC2BB7D7640EFD25D96EDA6A93
:10352000020EDA22DF5086EC30F0C0C0C7F0C1C016
:10353000C8F009EC5FF08E0EC76FF20EC86F09EC91
:103540005FF0FD2BFF0EED6FFF0EEE6FF751EF6F8B
:10355000F06BED51EF27EE51F023FD51F16FF26B5F
:10356000EF51F15DF251800AF36FF051800AF35987
:10357000D8A053D7F90EC76FFC0EC86F09EC5FF0E7
:10358000B5D2970E0001C76FF40EC86F01015651F6
:1035900086EC30F0C0C0C9F0C1C0CAF009EC5FF0E1
:1035A000A5D25B0E0001C76FF40EC86F0101565122
:1035B00086EC30F0C0C0C9F0C1C0CAF009EC5FF0C1
:1035C00095D2BF0E0001C76FF00EC86FC7C1C9F01A
:1035D000C8C1CAF009EC5FF089D2D60E0001C76FEE
:1035E000F20EC86FC5C1C9F0C6C1CAF009EC5FF0E0
:1035F0007DD2630E0001C76FF10EC86F5FC1C9F0C5
:1036000060C1CAF009EC5FF071D2D30E0001C76F40
:10361000F40EC86F0101565186EC30F0C0C0C9F0FD
:10362000C1C0CAF0220ECB6FEE0ECC6F09EC5FF07A
:10363000010EFD6FEF0EC76FFC0EC86FFD51090D37
:10364000220EF324C96FEE0EF420CA6F09EC5FF06E
:10365000FD2B080EFD65EED79B0EC76FF30EC86FEE
:1036600009EC5FF043D29F0E0001C76FF30EC86FE5
:1036700009EC5FF0170EC76FF60EC86F09EC5FF02C
:103680005D0EC76FF30EC86FCFC1C9F0D0C1CAF0CD
:1036900009EC5FF02BD2900E0001C76FF20EC86FDD
:1036A000CBC1C9F0CCC1CAF009EC5FF01FD29F0EAC
:1036B0000001C76FF30EC86F09EC5FF0170EC76FFC
:1036C000F60EC86F09EC5FF0DE0EC76FF30EC86F21
:1036D000CDC1C9F0CEC1CAF009EC5FF007D29F0E90
:1036E0000001C76FF30EC86F09EC5FF0170EC76FCC
:1036F000F60EC86F09EC5FF01A0EC76FF30EC86FB5
:10370000C9C1C9F0CAC1CAF009EC5FF0EFD1B10E6E
:103710000001C76FF10EC86F0101565186EC30F001
:10372000C0C0C9F0C1C0CAF009EC5FF0DFD11D0E06
:103730000001C76FF40EC86F0101565186EC30F0DE
:10374000C0C0C9F0C1C0CAF0A50ECB6FEE0ECC6FE1
:1037500009EC5FF0010EFD6FEF0EC76FFC0EC86F36
:10376000FD510A0DA50EF324C96FEE0EF420CA6FA9
:1037700009EC5FF0FD2B040EFD65EED79B0EC76FC5
:10378000F30EC86F09EC5FF0B1D1070E0001C76FEF
:10379000F00EC86F0101565186EC30F0C0C0C9F080
:1037A000C1C0CAF009EC5FF0A1D1630E0001C76F80
:1037B000F00EC86F0101565186EC30F0C0C0C9F060
:1037C000C1C0CAF009EC5FF091D111C16AF012C119
:1037D0006BF0000E00016D6F0A0E6C6F4AEC57F033
:1037E0006AC0F5F06BC0F6F0450EC76FF50EC86FF6
:1037F000F5C0C9F0F6C0CAF011C150F012C151F0C5
:1038000049EC5FF050C060F051C061F0000E000163
:10381000636F0A0E626FE1EC5CF060C0CBF061C0D8
:10382000CCF009EC5FF062D1970E0001C76FF90E82
:10383000C86F000EC96F030ECA6F09EC5FF0010E6E
:10384000FD6FFD05D8A405D00A0E01015619D8B4A4
:103850000FD0EF0E0001C76FFC0EC86FFD51190DA0
:10386000000EF324C96F030EF420CA6F09EC5FF059
:103870000001FD2B070EFD65E4D79B0EC76FF30E0D
:10388000C86F09EC5FF032D1B30E0001C76FF50EBF
:10389000C86F09EC5FF02AD1130E0001C76FF10E5B
:1038A000C86F09EC5FF022D17D0E0001C76FF50EE5
:1038B000C86F09EC5FF01AD10C0E0001C76FF50E4E
:1038C000C86F0101565186EC30F0C0C0C9F0C1C0CC
:1038D000CAF0730ECB6FEE0ECC6F09EC5FF0010EE9
:1038E000FD6FEF0EC76FFC0EC86FFD510A0D730E12
:1038F000F324C96FEE0EF420CA6F09EC5FF0FD2BC4
:10390000040EFD65EED79B0EC76FF30EC86F09EC72
:103910005FF0ECD0000E0001FB6F000EFA6FFB5160
:1039200060E1080EFA5DD8B05CD0840EC76FF90E66
:10393000C86FFAC0C9F0FBC0CAF0400EFA25D96EB4
:10394000020EFB21DA6EDF50ED6F410EED25CB6FDD
:10395000CC6B000ECC23D890FA35D96EFB35DA6EDD
:10396000890ED926020EDA22DECF60F0DDCF61F0BB
:10397000000E636F0A0E626FFDEC5AF060C0CDF06E
:1039800061C0CEF0D890FA35D96EFB35DA6E890E6B
:10399000D926020EDA22DECF60F0DDCF61F0000E14
:1039A000636F0A0E626FE1EC5CF060C0CFF061C043
:1039B000D0F009EC5FF0FB510BE1070EFA5DD8B0D7
:1039C00007D0F70EC76FFC0EC86F09EC5FF006D08A
:1039D0008E0EC76FF20EC86F09EC5FF0FA4BFB2B2F
:1039E0009ED7000E0101566F81D0AA0E0001C76F4D
:1039F000F80EC86F010156514B0D450EF326000E0F
:103A0000F422A60EF324F66EDD0EF420F76E090004
:103A1000F5CFC9F00A00F5CFCAF056514B0D470E4D
:103A2000F326000EF422A60EF324F66EDD0EF4202B
:103A3000F76E0900F5CFCBF00A00F5CFCCF009EC1A
:103A40005FF054D001015651000AD8B4B9D4020A2B
:103A5000D8B497D5010AD8B45AD6070AD8B41BD619
:103A6000010AD8B424D6030AD8B4CFD5010AD8B4F1
:103A70005ED60F0AD8B489D6010AD8B41DD7030A76
:103A8000D8B4D2D6060AD8B48CD5010AD8B427D671
:103A9000030AD8B48AD6010AD8B497D61F0AD8B474
:103AA000E2D5010AD8B48DD5030AD8B496D5010A57
:103AB000D8B49FD5070AD8B4B7D6020AD8B4E4D68A
:103AC000010AD8B4B1D60E0AD8B4E6D6040AD8B4DE
:103AD000EBD6020AD8B4E8D63E0AD8B4E5D6020A34
:103AE000D8B4E2D6110AD8B415D77FD7000E010199
:103AF000596F000E5B6F12000101532B5151D8B466
:103B000061D0090E5119D8A456D05051D8B453D011
:103B1000020E4019D8A40BD0000E0001706F700E79
:103B2000716FFA0E726F000EBDEC56F041D0030EAD
:103B30004019D8A40BD0000E0001706F490E716FB0
:103B4000FA0E726F000EBDEC56F032D0040E401922
:103B5000D8A40BD0000E0001706F200E716FF90E0B
:103B6000726F000EBDEC56F023D0050E4019D8A49C
:103B70000BD0000E0001706F350E716FF90E726F71
:103B8000000EBDEC56F014D0060E4019D8A40BD090
:103B9000000E0001706F710E716FF90E726F000EE2
:103BA000BDEC56F005D0000E0A6E000E23EC60F05E
:103BB000000E0101536F780E53651200000E516F15
:103BC000B8EC3AF001015305D8A403D0000E3E6FC3
:103BD00009D0040E536506D0010E536F3F51010802
:103BE0003F6F3E2B5850D8B4C1D089863C0E546FDD
:103BF00058A221D09D0E00017D6FFB0E7E6F000E3E
:103C0000A4EC60F0AA0E00017D6FFA0E7E6F020E2A
:103C1000A4EC60F0890E00017D6FFC0E7E6F040E37
:103C2000A4EC60F0370E00017D6FFC0E7E6F060E77
:103C3000A4EC60F0120058A421D0010E00017D6FA9
:103C4000FB0E7E6F000EA4EC60F08F0E00017D6F06
:103C5000FC0E7E6F020EA4EC60F08B0E00017D6FF7
:103C6000FB0E7E6F040EA4EC60F0D20E00017D6F9F
:103C7000FB0E7E6F060EA4EC60F0120058A845D033
:103C80003F51D8A421D0940E00017D6FFB0E7E6FB2
:103C9000000EA4EC60F0A10E00017D6FFC0E7E6FA3
:103CA000020EA4EC60F0EA0E00017D6FFB0E7E6F49
:103CB000040EA4EC60F0820E00017D6FFB0E7E6F9F
:103CC000060EA4EC60F01200950E00017D6FFC0E54
:103CD0007E6F000EA4EC60F03E0E00017D6FFC0EC6
:103CE0007E6F020EA4EC60F0AC0E00017D6FFB0E47
:103CF0007E6F040EA4EC60F09B0E00017D6FFC0E45
:103D00007E6F060EA4EC60F0120058AC1CD0FA0EC8
:103D100000017D6FFB0E7E6F020EA4EC60F0F10ED1
:103D20000001B36FB46BEC0EB56FFA0EB66F4DC1F8
:103D3000B7F0B86BBEEC5DF0F10E7D6F7E6B040EDC
:103D4000A4EC60F0120058AE11D0B50E00017D6FEA
:103D5000FA0E7E6F020EA4EC60F0C00E00017D6FC3
:103D6000FA0E7E6F040EA4EC60F01200500E4D1996
:103D7000D8A411D0FA0E00017D6FFB0E7E6F020EEB
:103D8000A4EC60F04C0E00017D6FFC0E7E6F040E03
:103D9000A4EC60F012005A50D8B403D04551D8A416
:103DA000C7D0000E0A6E000E23EC60F0040E0A6EFF
:103DB000010E23EC60F0100E0A6E060E23EC60F08C
:103DC000000E0A6E070E23EC60F058A011D0E20E30
:103DD00000017D6FFB0E7E6F020EA4EC60F0150EED
:103DE00000017D6FFB0E7E6F040EA4EC60F05AD3D1
:103DF000020E5918D8A438D03C0E0101546F8B0E16
:103E000000017D6FFB0E7E6F020EA4EC60F0F10EE0
:103E10000001B36FB46B290EB56FFC0EB66F89C28B
:103E200060F08AC261F0000E636F0A0E626FFDECF3
:103E30005AF060C0B7F061C0B8F089C260F08AC2C1
:103E400061F0000E636F0A0E626FE1EC5CF060C01F
:103E5000B9F061C0BAF0BEEC5DF0F10E7D6F7E6B23
:103E6000040EA4EC60F01ED301014551D8B426D055
:103E7000A60E00017D6FFB0E7E6F020EA4EC60F0BB
:103E8000F10E0001B36FB46B290EB56FFB0EB66F68
:103E900057C0B7F0B86BBEEC5DF05750D8B404D043
:103EA0003C0E0101546F02D0000EF76FF10E0001BD
:103EB0007D6F7E6B040EA4EC60F0F4D26151D8B437
:103EC00026D0070E4019D8A411D0DA0E00017D6F5C
:103ED000FB0E7E6F020EA4EC60F0F70E00017D6F0A
:103EE000FA0E7E6F040EA4EC60F0DCD2F20E00013C
:103EF0007D6FFB0E7E6F020EA4EC60F0F70E0001EA
:103F00007D6FFA0E7E6F040EA4EC60F0CBD2450EEE
:103F100000017D6FFC0E7E6F020EA4EC60F0300E8F
:103F200000017D6FFC0E7E6F040EA4EC60F0BAD22F
:103F30005A04D8B404D0020E5A18D8A4B3D2780EBA
:103F4000056E050E066EC80E076EEB0E086E020EAD
:103F50000A6E000E096E7BEC5AF05A04D8A419D0F0
:103F6000000E0001FD6F0C0EFD6501D012D0C20ED7
:103F7000FD25D96EDA6A050EDA22000EDF6E420EDA
:103F8000FD25D96EDA6A060EDA22000EDF6EFD2BF1
:103F9000EAD7010127512811D8B43AD027C1EFF050
:103FA00028C1F0F0EFC060F0F0C061F0000E000139
:103FB000636F3C0E626FFDEC5AF060C0EDF061C0C3
:103FC000EEF0EFC060F0F0C061F0000E636F3C0EE9
:103FD000626FE1EC5CF060C0EFF061C0F0F0F10EF8
:103FE000B36FB46B330EB56FFB0EB66FEDC0B7F0A9
:103FF000EEC0B8F0EFC0B9F0F0C0BAF0BEEC5DF0C2
:10400000000E726FF10E736F640EBFEC5CF011D096
:10401000000E0001FD6F070EFD6501D00AD0D40E21
:10402000FD25D96EDA6A050EDA22000EDF6EFD2B51
:10403000F2D7010132AF07D0030EBD5F140EBD6190
:1040400009D02C0E06D0030EBD272C0EBD6502D064
:10405000140EBD6FBDC125F1266B000E0201AC6FC1
:10406000030EAB6F31C150F032C151F049EC5FF03B
:1040700051BE0DD0515004E1040E505CD8A007D0C1
:10408000000E00016B6FFE0E6A6F9FEC50F0010195
:104090006251D8B41CD0F10E0001C06FE10EC16FA7
:1040A000FA0EC26F58C2C3F059C2C4F05AC2C5F06A
:1040B0005BC2C6F0030EC76F010EC86F6FEC47F00E
:1040C000010E726FF10E736F590EBFEC5CF0020EB1
:1040D0005918D8A480D03C0E0101546F030EBC27A0
:1040E000590EBC6502D04A0EBC6FBCC125F1266BCF
:1040F000000E0201AC6F030EAB6F000E00016B6F80
:10410000FE0E6A6F9FEC50F001013F51D8B449D0C8
:104110006251D8B446D0020153BF09D05351521155
:1041200023E1DE0E505D260E5159D8B01DD0F10EA0
:104130000001C06F1F0EC16FFB0EC26F50C2C3F0F3
:1041400051C2C4F052C2C5F053C2C6F0030EC76FCD
:10415000010EC86F6FEC47F0020E726FF10E736FB5
:10416000490EBFEC5CF037D0F10E0001C06FA70E16
:10417000C16FFC0EC26F50C2C3F051C2C4F052C234
:10418000C5F053C2C6F0030EC76F000EC86F6FECC8
:1041900047F0020E726FF10E736F4B0EBFEC5CF0C6
:1041A0001AD0F10E0001C06FE10EC16FFC0EC26F9C
:1041B00089C2C3F08AC2C4F0C56BC66B010EC76F5B
:1041C000000EC86F6FEC47F0020E726FF10E736F46
:1041D0004D0EBFEC5CF001013F51D8B431D0020E5E
:1041E0005A18D8A42DD0000E266F290E256F000E68
:1041F0000201AC6F010EAB6F000E00016B6FE30E9E
:104200006A6F9FEC50F0F10EC06FDC0EC16FFC0EB8
:10421000C26F31C1C3F032C1C4F0000EC4BFFF0E83
:10422000C56FC66F010EC76F000EC86F6FEC47F009
:10423000020E726FF10E736F170EBFEC5CF02DD093
:10424000000E0001FD6F020EFD6501D026D0F10EBB
:10425000C06FDC0EC16FFC0EC26FFD51020D110E5E
:10426000F324D96E010EF420DA6EDECFC3F0DDCF79
:10427000C4F0000EC4BFFF0EC56FC66F010EC76F3E
:10428000000EC86F6FEC47F0FDC072F0F10E736F57
:10429000170EBFEC5CF0FD2BD6D7000EEDEC59F0FD
:1042A000000E0A6E040E23EC60F058A016D0010137
:1042B0003F51D8A409D0E20E00017D6FFB0E7E6F46
:1042C000050EA4EC60F0E9D0150E00017D6FFB0E29
:1042D0007E6F050EA4EC60F0E0D058AA16D0010164
:1042E0003F51D8A409D0E20E00017D6FFB0E7E6F16
:1042F000050EA4EC60F0D1D00B0E00017D6FFB0E1B
:104300007E6F050EA4EC60F0C8D0020E5918D8B428
:104310001ED0F10E0001B36FB46BAF0EB56FFB0E84
:10432000B66F57C0B7F0B86BBEEC5DF05750D8B45D
:1043300004D03C0E0101546F02D0000EF66FF10E56
:1043400000017D6F7E6B050EA4EC60F0A6D0020E1E
:104350005918D8B493D0A1D0000E3E6F5A50D8B49B
:1043600016D0020E5A18D8A409D00F0E00017D6F86
:10437000FB0E7E6F050EA4EC60F08FD0CB0E00011B
:104380007D6FFC0E7E6F050EA4EC60F086D03E2B98
:104390008B0E00017D6FFB0E7E6F050EA4EC60F0AE
:1043A0007CD06251D8B41CD0F10E0001C06FCB0E8E
:1043B000C16FFA0EC26F50C2C3F051C2C4F052C2F4
:1043C000C5F053C2C6F0030EC76F010EC86F6FEC85
:1043D00047F0F10E7D6F7E6B050EA4EC60F05DD0B2
:1043E0003E2B6251D8B41CD0F10E0001C06F7C0E80
:1043F000C16FFA0EC26F58C2C3F059C2C4F05AC29C
:10440000C5F05BC2C6F0030EC76F020EC86F6FEC3B
:1044100047F0F10E7D6F7E6B050EA4EC60F03DD091
:104420003E2BF10E0001B36FB46BCA0EB56FFB0EDD
:10443000B66F89C260F08AC261F0000E636F0A0E27
:10444000626FFDEC5AF060C0B7F061C0B8F089C28D
:1044500060F08AC261F0000E636F0A0E626FE1ECD9
:104460005CF060C0B9F061C0BAF0BEEC5DF0F10E76
:104470007D6F7E6B050EA4EC60F00FD001013E5104
:10448000010AD8B485D7030AD8B48BD7010AD8B4A7
:10449000A8D7070AD8B4C5D75FD7000E0A6E070E93
:1044A00023EC60F001015451D8B403D0898654073D
:1044B0001200899612000101776F000E0101856FCD
:1044C000000E846F000E796F000E786F000E766F0D
:1044D000000E756F21EE6BF0070EDE6AE806FDE256
:1044E0006851D8B4DAEC5DF0020E02014019D8A48C
:1044F00016D00101CD513B5DCE513C59D8B00FD003
:104500006951D8A40CD03BC164F03CC165F0000EE9
:104510000001676F0A0E666F85EC5FF00BD0CDC1AE
:1045200064F0CEC165F0000E0001676F0A0E666F81
:1045300085EC5FF064C039F165C03AF10101375193
:104540003811D8B404D037C139F138C13AF1020E6C
:10455000686104D039C110F23AC111F2000E866FC1
:10456000400E8625D96EDA6A020EDA22020EDE18B5
:10457000D8A41AD0844B852B8651020D100EF3243B
:10458000D96E020EF420DA6EDE507827DD507923E2
:104590008651020D890EF324D96E020EF420DA6ED4
:1045A000DE507527DD507623862B070E8665D8D71B
:1045B0007751D8A45BD0020E5A18D8B457D0CFC1C7
:1045C00064F0D0C165F0000E0001676F0A0E666FDF
:1045D00085EC5FF0010135510001645D01017E6FE2
:1045E00036510001655901017F6F7FBF11D07F51A6
:1045F00003E17E05D8A00CD07EC16AF07FC16BF0CC
:10460000000E00016D6F040E6C6F4AEC57F015D070
:104610007EC164F07FC165F0000E0001676F640E1B
:10462000666F85EC5FF064C06AF065C06BF0000EE9
:104630006D6F640E6C6F4AEC57F06A5101012F27C1
:1046400000016B510101302330AF04D0000E306FF8
:10465000000E2F6F30BF0AD0210E2F5D030E305990
:10466000D8A004D0030E306F200E2F6F020E5A1800
:10467000D8A4B8D05FC164F060C165F0FF0E00013E
:10468000676FF60E666F85EC5FF001013151000136
:1046900064250101826F3251000165210101836FA0
:1046A00083AF20D083AF12D0F60E825DFF0E835908
:1046B000D8B00CD082C16AF083C16BF0000E00014B
:1046C0006D6F030E6C6F4AEC57F017D082C16AF021
:1046D00083C16BF0000E00016D6F040E6C6F4AEC2D
:1046E00057F00BD082C16AF083C16BF0000E00015D
:1046F0006D6F020E6C6F4AEC57F06A5101012F5D2D
:104700002F6F00016B5101013059306F84C164F08B
:1047100085C165F0CBC166F0CCC167F085EC5FF078
:1047200064C080F165C081F180C164F081C165F031
:10473000000E676F0A0E666F85EC5FF06451010131
:104740002F5D0001655101013059D8A002D030AF72
:1047500042D084C164F085C165F0CBC166F0CCC1A4
:1047600067F085EC5FF064C080F165C081F180C1C5
:1047700064F081C165F0000E676F0A0E666F85EC0C
:104780005FF064C02FF165C030F1010184518511E3
:10479000D8B421D0C551C611D8A483BF1CD0835131
:1047A00004E10B0E825DD8A016D027512811D8A4A1
:1047B00019D0C5C164F0C6C165F0000E0001676F75
:1047C0003C0E666F85EC5FF064C0ACF065C0ADF088
:1047D00022EC5DF007D0000E0001AD6F000EAC6F53
:1047E00022EC5DF06805D8A423D0C9C164F0CAC129
:1047F00065F0000E0001676F0A0E666F85EC5FF0D2
:1048000001012F510001645D010130510001655922
:10481000D8B00ED0C9C164F0CAC165F0000E676F90
:104820000A0E666F85EC5FF064C02FF165C030F151
:1048300001017551355D7A6F765136597B6F7BAFCB
:1048400004D0000E7B6F000E7A6F5A50D8A417D098
:104850006805D8A410D0C9C164F0CAC165F0000EC3
:104860000001676F0A0E666F85EC5FF064C02FF180
:1048700065C030F104D039C12FF13AC130F10101E6
:1048800084518511D8B459D17751D8B41AD0020EB9
:104890005A18D8B416D0CFC164F0D0C165F0000E5C
:1048A0000001676F0A0E666F85EC5FF001017A51B7
:1048B0000001645D01012F6F7B5100016559010109
:1048C000306F30BF41D084C164F085C165F0CBC189
:1048D00066F0CCC167F085EC5FF064C080F165C024
:1048E00081F180C164F081C165F0000E676F0A0E2E
:1048F000666F85EC5FF0645101012F5D0001655129
:1049000001013059D8A020D0020E5A18D8B432BFB5
:1049100041D0325104E10B0E315DD8A03BD0CFC164
:1049200064F0D0C165F0000E0001676F0A0E666F7B
:1049300085EC5FF0010135510001645D01013651E4
:1049400000016559D8B026D084C164F085C165F0F6
:10495000CBC166F0CCC167F085EC5FF064C080F13C
:1049600065C081F180C164F081C165F0000E676FA0
:104970000A0E666F85EC5FF064C02FF165C030F100
:1049800001014E2B2D0E0001C76FFA0EC86F09EC06
:104990005FF003D0000E01014E6F01012F51785DD1
:1049A0007951800A0001E66F01013051800A00014F
:1049B000E659D8B004D078C12FF179C130F12FC1B8
:1049C0007CF130C17DF1000E0101866F7CC16AF07F
:1049D0007DC16BF084C16CF085C16DF04AEC57F07D
:1049E0006AC073F16BC074F1400E01018625D96E67
:1049F000DA6A020EDA22020EDE18D8A445D06B0E57
:104A00008625D96EDA6A010EDA22DF50D8A43CD0AE
:104A10008651020D100EF324D96E020EF420DA6EC8
:104A2000DE50735DDE507459D8A02ED08651020D31
:104A3000100EF324D96E020EF420DA6E8651020DA8
:104A4000890EF324E16E020EF420E26EDECFE6FF63
:104A5000DDCFE5FF6B0E8625D96EDA6A010EDA220C
:104A6000010EDF6E8407D8A085078651020D890EDE
:104A7000F324D96E020EF420DA6EDE507C5FDD5036
:104A80007D5B000E866F01D0862B080E866104D0F8
:104A900084518511D8A49AD7000E866F8451851150
:104AA000D8B44BD0400E8625D96EDA6A020EDA22CF
:104AB000020EDE18D8A439D06B0E8625D96EDA6ABC
:104AC000010EDA22DF50D8A430D07CC16AF07DC15B
:104AD0006BF084C16CF085C16DF04AEC57F00101B8
:104AE0008651020D890EF324D96E020EF420DA6E7F
:104AF00000016AC0DEFF6BC0DDFF6B0E0101862581
:104B0000D96EDA6A010EDA22010EDF6E8407D8A0B0
:104B100085078651020D890EF324D96E020EF4200A
:104B2000DA6EDE507C5FDD507D5B862B080E866181
:104B300004D084518511D8A4B5D76805D8A4120033
:104B4000470E0001C76FFB0EC86F09EC5FF0000E47
:104B50000101866F840E0001C76FF90EC86F86C110
:104B6000C9F0CA6B400E01018625D96EDA6A020EC1
:104B7000DA22DF500001E66F410EE625CB6FCC6BE9
:104B8000000ECC2301018651020D890EF324D96E4B
:104B9000020EF420DA6EDECF60F0DDCF61F0000EA1
:104BA0000001636F0A0E626FFDEC5AF060C0CDF039
:104BB00061C0CEF001018651020D890EF324D96E39
:104BC000020EF420DA6EDECF60F0DDCF61F0000E71
:104BD0000001636F0A0E626FE1EC5CF060C0CFF021
:104BE00061C0D0F009EC5FF0070E0101866107D0CB
:104BF000F70E0001C76FFC0EC86F09EC5FF00101F2
:104C0000862B070E8665A6D71200000E0101426FA3
:104C10005CD220EE03F0AC51D926AD51DA22DF5040
:104C2000D8A402D0000E120020EE03F0AC51D92619
:104C3000AD51DA22DFAE02D0100E01D01C0EC36FD0
:104C4000000EC46FACC050F0ADC051F0C451040DA3
:104C5000F350C325526EAE51190D0A0EF324D96ECE
:104C6000030EF420DA6EDF50536EAE51190D0C0EA8
:104C7000F324D96E030EF420DA6EDF50546EAE5179
:104C8000190D120EF324D96E030EF420DA6EDF50E4
:104C9000FD0F556EC1EC43F00001C451040DF3CF7C
:104CA000B1F0F4CFB2F0B151AF25D96EB251B0210D
:104CB000DA6E50C0DEFF51C0DEFF52C0DEFF53C0CF
:104CC000DEFF1C0EC319D8A4E9D0C451D8A428D043
:104CD000C451040DF3CFB1F0F4CFB2F0B151AF2510
:104CE000D96EB251B021DA6EDECF42F0DECF43F0A2
:104CF000DECF44F0DECF45F00A0E466E000E476E62
:104D0000000E486E000E496EA9EC52F042C050F001
:104D100043C051F049EC5FF050C060F251C061F205
:104D2000C1C136F0C2C137F0000E37BEFF0E386E7B
:104D3000396E0001C451040DF3CFB1F0F4CFB2F0DD
:104D4000B151AF25D96EB251B021DA6EDECF3AF053
:104D5000DECF3BF0DECF3CF0DECF3DF0A8EC5AF0EA
:104D600036C042F037C043F038C044F039C045F097
:104D7000000E466E040E476E000E486E000E496E21
:104D8000A9EC52F00001C451040DF3CFB3F0F4CFFD
:104D9000B4F0B351AF25D96EB451B021DA6E42C030
:104DA000DEFF43C0DEFF44C0DEFF45C0DEFF010181
:104DB000D05104E1650ECF5DD8A032D00001C451BE
:104DC000040DF3CFB1F0F4CFB2F0B151AF25D96EED
:104DD000B251B021DA6EDECFB3F0DECFB4F0DECF69
:104DE000B5F0DECFB6F0D890B335B76FB435B86F45
:104DF000B535B96FB635BA6FC451040DF3CFBBF0FA
:104E0000F4CFBCF0BB51AF25D96EBC51B021DA6EE6
:104E1000B7C0DEFFB8C0DEFFB9C0DEFFBAC0DEFF3C
:104E20000001C451040DF3CFB1F0F4CFB2F0B15191
:104E3000AF25D96EB251B021DA6E030EDBBE2BD096
:104E4000C451040DF3CFB1F0F4CFB2F0B151AF259E
:104E5000D96EB251B021DA6E030EDBBE0CD0030E58
:104E6000DB5019E1020EDB5016E1010EDB5013E1BD
:104E7000DE04D8B010D0C451040DF3CFB1F0F4CF9C
:104E8000B2F0B151AF25D96EB251B021DA6EDE6AFF
:104E9000DE6ADE6ADD6A010E0101426F0001C42B89
:104EA000020EC465CFD620EE01F0AC51D926AD512B
:104EB000DA220F0EDF6433D01C0EC319D8A42FD012
:104EC000010E0101436F63510001B16FB26BD890C5
:104ED000B137B23720EE01F0AC51D926AD51DA220C
:104EE000DF50030BB36FB46BB151B31904E1B2518E
:104EF000B419D8B4BDD1020E01016861B9D1080E50
:104F00000001A96F000EA86FD89001016335000160
:104F1000AA6FAB6BAB370A0E93EC5EF0A9D1000E13
:104F20000101436FA5D1ACC050F0ADC051F0060EE9
:104F3000526EAE51190D0A0EF324D96E030EF420F1
:104F4000DA6EDF50536EAE51190D0C0EF324D96E8C
:104F5000030EF420DA6EDF50546E000E556EC1EC75
:104F600043F0501E511E504A512A50C0BDF051C04E
:104F7000BEF0000E0001C46FAE51190D0C0EF324EB
:104F8000D96E030EF420DA6E020EDE18D8B404D007
:104F9000000EC06F040E03D0000EC06F020EBF6F74
:104FA000ACC050F0ADC051F0C451BF03F3CF52F0CC
:104FB000AE51190D0A0EF324D96E030EF420DA6EE9
:104FC000DF50536EAE51190D0C0EF324D96E030E43
:104FD000F420DA6EDF50546EBD51FD0F556EC1ECFA
:104FE00043F00001C451040DF3CFB1F0F4CFB2F09F
:104FF000B151AF25D96EB251B021DA6E50C0DEFF8B
:1050000051C0DEFF52C0DEFF53C0DEFFC42B020ED4
:10501000C465B2D72DD1000EC46FAE51190D0C0E60
:10502000F324D96E030EF420DA6E020EDE18D8B423
:1050300004D0000EC26F040E03D0000EC26F020E29
:10504000C16FACC050F0ADC051F0C451C103F350BA
:10505000C325526EAE51190D0A0EF324D96E030EFC
:10506000F420DA6EDF50536EAE51190D0C0EF3249E
:10507000D96E030EF420DA6EDF50546EAE51190D66
:10508000120EF324D96E030EF420DA6EDF50FD0FFA
:10509000556EC1EC43F00001C451040DF3CFB1F0E3
:1050A000F4CFB2F0B151AF25D96EB251B021DA6E62
:1050B00050C0DEFF51C0DEFF52C0DEFF53C0DEFF36
:1050C000C42B020EC465A9D7D3D00001AE51010A8A
:1050D000D8B49FD5070AD8B426D79DD7000EC46F81
:1050E000ACC050F0ADC051F0C451040DF3500C0FE2
:1050F000526EAE51190D0A0EF324D96E030EF42030
:10510000DA6EDF50536EAE51190D0C0EF324D96ECA
:10511000030EF420DA6EDF50546EAE51190D150EE9
:10512000F324D96E030EF420DA6EDF50556EC1EC15
:1051300043F053AE32D00001C451040DF3CFB1F0AF
:10514000F4CFB2F0B151AF25D96EB251B021DA6EC1
:10515000DECFB3F0DECFB4F0DECFB5F0DECFB6F009
:10516000B31FB41FB51FB61FB32B000EB423B52356
:10517000B623C451040DF3CFB7F0F4CFB8F0B75154
:10518000AF25D96EB851B021DA6EB3C0DEFFB4C01E
:10519000DEFFB5C0DEFFB6C0DEFF0001C42B020E8D
:1051A000C4659ED76DD0000EC46FACC050F0ADC0CA
:1051B00051F0C451040DF350140F526EAE51190D3D
:1051C0000A0EF324D96E030EF420DA6EDF50536E0C
:1051D000AE51190D0C0EF324D96E030EF420DA6EC5
:1051E000DF50546EAE51190D150EF324D96E030E17
:1051F000F420DA6EDF50556EC1EC43F053AE32D07E
:105200000001C451040DF3CFB1F0F4CFB2F0B151AD
:10521000AF25D96EB251B021DA6EDECFB3F0DECF5A
:10522000B4F0DECFB5F0DECFB6F0B31FB41FB51FBC
:10523000B61FB32B000EB423B523B623C451040DFF
:10524000F3CFB7F0F4CFB8F0B751AF25D96EB8515E
:10525000B021DA6EB3C0DEFFB4C0DEFFB5C0DEFF42
:10526000B6C0DEFF0001C42B020EC4659ED708D075
:105270000001AE51040AD8B431D7010AD8B493D78B
:10528000010E1200AF6F37EC39F0AE6F3C0E546F69
:1052900089866605D8B458A802D081A25898515181
:1052A000D8A412D0050EAF19D8A40ED03D51D8A461
:1052B0000BD0010E516F1BC148F21CC149F21DC138
:1052C0004AF21EC14BF2F0D15105D8A421D0D00E24
:1052D000020148250101A06F070E020149210101C9
:1052E000A16F000E02014A210101A26F000E02010E
:1052F0004B210101A36F1B51A05D1C51A1591D51F0
:10530000A2591E51A359D8B003D0020E516F23D019
:105310005105D8A40BD0070EAF19D8A407D0000EA2
:10532000516F000E3D6F7CEC1DF0BED10F0E511978
:10533000D8A413D0020EAF19D8A40FD05051D8B4AE
:105340000CD0000EC16F040EC26F000EC36F000EB2
:10535000C46F000E506F010E95D1010E516519D129
:10536000020EAF19D8B408D0030EAF19D8B404D0C8
:10537000060EAF19D8A40DD13D51D8A4B4D05051C8
:10538000D8A499D0A0D023C105F024C106F0000E06
:10539000086E640E076E030E0A6EE70E096EAF51BB
:1053A000D3EC5AF005C023F106C024F199D0515135
:1053B00087EC3DF005C021F106C022F121C105F0C6
:1053C00022C106F0010151514B0D450EF326000E8E
:1053D000F422A60EF324F66EDD0EF420F76E09001B
:1053E000F5CF07F00A00F5CF08F051514B0D470EED
:1053F000F326000EF422A60EF324F66EDD0EF42042
:10540000F76E0900F5CF09F00A00F5CF0AF0AF51A9
:10541000D3EC5AF005C021F106C022F101012105AB
:105420002211D8B4CBD721C1E7F022C1E8F0515105
:1054300020EC3CF055D0515187EC3DF005C021F1F6
:1054400006C022F121C105F022C106F0010151512F
:105450004B0D450EF326000EF422A60EF324F66E35
:10546000DD0EF420F76E0900F5CF07F00A00F5CF46
:1054700008F051514B0D470EF326000EF422A60EF4
:10548000F324F66EDD0EF420F76E0900F5CF09F077
:105490000A00F5CF0AF0AF51D3EC5AF005C021F164
:1054A00006C022F121C1E7F022C1E8F0010151510B
:1054B00020EC3CF015D051510A0AD8B478D7050A2F
:1054C000D8B461D7B8D751C10CF0640E0D6E020E7E
:1054D0000E6EAEC10FF0AF5142EC58F00101516FAA
:1054E000010E0101CFD0020E3D19D8A40FD01F51DB
:1054F0002011D8A40BD0010E206FF40E1F6FF40EF4
:105500001B250201486F010E010135D01F512011EA
:10551000D8B4CAD01B510201485D01011C510201DF
:10552000495901011D5102014A5901011E5102014F
:105530004B59D8B0B9D0000E01013D6F205104E1A4
:10554000020E1F5DD8A0B0D01FC1A0F120C1A1F1F3
:10555000D890A133A033D890A133A033D890A133F1
:10556000A033A0511F5FA151205B1F511B250201D9
:10557000486F010120511C210201496F000E0101F9
:105580001D2102014A6F000E01011E2102014B6F15
:105590008BD0010E516578D0050EAF19D8A474D008
:1055A0003D51D8A471D0010E3D6F5051D8B43FD0B9
:1055B000000E506F0F0E5119D8A476D023C136F0CB
:1055C00024C137F0386A396A0A0E3A6E000E3B6E13
:1055D000000E3C6E000E3D6EA8EC5AF00A0ED890FC
:1055E0003636373638363936E82EF9D7000E3624B7
:1055F000426E140E3720436E000E3820446E000EAB
:105600003920456E60C246F061C247F0486A496A77
:105610008DEC57F042C0C1F143C0C2F144C0C3F1A8
:1056200045C0C4F123C111F124C112F13DD0010ED6
:10563000506F0F0E5119D8A40BD011C150F012C1E8
:1056400051F049EC5FF050C023F151C024F12CD04F
:10565000250E5119D8A428D0000E516F000E506F9E
:10566000000E586E000E4D6F000E576E000E0001BA
:10567000AD6F000EAC6F22EC5DF07CEC1DF078ECB1
:1056800034F0020E3D6F10D0070EAF19D8A40CD025
:10569000000E3D6F000E206F000E1F6F000E066E95
:1056A0000A0E056E42EC5DF001013D05D8B403D051
:1056B0005105D8A409D15105D8A425D0000E0A6EF1
:1056C000000E23EC60F0040E0A6E010E23EC60F075
:1056D000D60E00017D6FFA0E7E6F020EA4EC60F014
:1056E000B80E00017D6FFB0E7E6F040EA4EC60F01F
:1056F000100E0A6E060E23EC60F0000E0A6E070E06
:1057000023EC60F0DED051514B0D080EF326000E55
:10571000F422A60EF3240001C76FDD0EF420C86F3B
:10572000020E1FEC59F073D05051D8B428D0A40EFB
:105730000001B36F010EB46F290EB56FFC0EB66F8A
:1057400023C160F024C161F0000E636F0A0E626F26
:10575000FDEC5AF060C0B7F061C0B8F023C160F052
:1057600024C161F0000E636F0A0E626FE1EC5CF021
:1057700060C0B9F061C0BAF0BEEC5DF035D0A40EE7
:105780000001B36F010EB46F290EB56FFC0EB66F3A
:1057900011C150F012C151F049EC5FF050C060F0FF
:1057A00051C061F0000E0001636F0A0E626FFDECE4
:1057B0005AF060C0B7F061C0B8F011C150F012C12A
:1057C00051F049EC5FF050C060F051C061F0000E44
:1057D0000001636F0A0E626FE1EC5CF060C0B9F02B
:1057E00061C0BAF0BEEC5DF0A40EC76F010EC86FC9
:1057F000040E1FEC59F011D0515186EC30F0C0C0AE
:10580000C7F0C1C0C8F0040E1FEC59F006D001016A
:1058100051510F0AD8B488D7EFD7000E0A6E070E81
:1058200023EC60F0A40E0001B36F010EB46F830E81
:10583000B56FFC0EB66F010152510001B76FB86B26
:10584000B7BFB807BEEC5DF0070E706FA40E716FA6
:10585000010E726F000EBDEC56F0A40E0001B36F86
:10586000010EB46F530EB56FFC0EB66F0101AE5151
:10587000ACEC5EF00101A06FA0510001B76FB86BF6
:10588000AEC1B9F0BA6BBEEC5DF0070E706FA40E3E
:10589000716F010E726F310EBDEC56F0070E0001F4
:1058A000706F7D0E716FFC0E726F7D0E056EFB0EBC
:1058B000066EDBEC5EF00550FA0DF3507A0FBDEC8E
:1058C00056F0020E01013D6F1BC15CF21CC15DF27E
:1058D0001DC15EF21EC15FF2000E4F6FAFC1BEF17F
:1058E000000E536F1200000E0101006F000E016FD9
:1058F000000E036F000E026F000E056F000E046FA6
:10590000000E076F000E066F000E0A6F000E0B6F81
:10591000000E106F050E0001E819D8A42AD0E6C0C9
:1059200005F0E7C006F0E8C007F055EC59F0055067
:105930000610D8A41200040E01010B6FE6C0D9FFB7
:10594000E7C0DAFFDF50006F000120EE01F0E65102
:10595000D926E751DA22DF500101016F000120EE64
:1059600002F0E651D926E751DA22DF500101106F2B
:105970001200070EE8651200E6C0D9FFE7C0DAFFA3
:10598000DF500101006F000120EE01F0E651D92641
:10599000E751DA22DF500101016FE6C005F0E7C0F0
:1059A00006F0E8C007F055EC59F005500610D8A4F1
:1059B00012001CD1080E0001E819D8A43CD0020E38
:1059C00001010B6F000120EE02F0E651D926E751EC
:1059D000DA22DF50E96FE951EB6FEA6B20EE03F05A
:1059E000E651D926E751DA22DF50EC6FEC51EA118B
:1059F0000101026F0001EB510101036F000120EE74
:105A000004F0E651D926E751DA22DF50E96FE95177
:105A1000EB6FEA6B20EE05F0E651D926E751DA226A
:105A2000DF50EC6FEC51EA110101046F0001EB5102
:105A30000101056FE9D020EE02F0E651D926E751C9
:105A4000DA22DF5001010A6F0A510001E96FEA6BA7
:105A5000FB0EEB6FFF0EEC6FE851ED6FEE6BEB5151
:105A6000ED27EC51EE23E951ED1906E1EA51EE196B
:105A7000D8A402D0030EB0D08C0EC76FF70EC86F3B
:105A800009EC5FF0C1D0080E0001E819D8A440D09D
:105A9000010E01010B6F000120EE02F0E651D92644
:105AA000E751DA22DF50E96FE951EB6FEA6B20EE44
:105AB00003F0E651D926E751DA22DF50EC6FEC51C2
:105AC000EA110101026F0001EB510101036F000EA9
:105AD000056F010E046F000120EE04F0E651D92697
